:100000000000042011210000392100003B210000E4
:100010003D2100003F2100004121000000000000C0
:10002000000000000000000000000000432100006C
:100030004521000000000000472100004921000088
:100040007548000081650200E14A0000B91B00000C
:100050004B2100004B2100003D4900004B210000D6
:100060004B2100004B2100004B2100004B210000E0
:100070004B210000F14B00004B2100004B21000000
:100080004B210000E13300004B2100004B21000018
:100090007D3400004B2100004B2100004B2100006B
:1000A0004B2100004B210000F94D00004B210000C6
:1000B0004B2100004B210000000000000000000068
:1000C0004B2100004B2100004B2100004B21000080
:1000D000758702004B2100004B2100004B210000DE
:1000E0004B2100004B2100004B21000000000000CC
:1000F000000000004B210000000000004B21000028
:1001000000000000000000000000000000000000EF
:1001100000000000000000000000000000000000DF
:1001200000000000000000000000000000000000CF
:1001300000000000000000000000000000000000BF
:1001400000000000000000000000000000000000AF
:10015000000000000000000000000000000000009F
:10016000000000000000000000000000000000008F
:10017000000000000000000000000000000000007F
:10018000000000000000000000000000000000006F
:10019000000000000000000000000000000000005F
:1001A000000000000000000000000000000000004F
:1001B000000000000000000000000000000000003F
:1001C000000000000000000000000000000000002F
:1001D000000000000000000000000000000000001F
:1001E000000000000000000000000000000000000F
:1001F00000000000000000000000000000000000FF
:1002000010B5054C237833B9044B13B10448AFF350
:1002100000800123237010BD68040020000000004E
:1002200094C1020008B5034B1BB103490348AFF367
:10023000008008BD000000006C04002094C1020092
:10024000154B002B08BF134B9D46A3F5803A0021A8
:100250008B460F461348144A121A28F0FAFD0F4B2A
:10026000002B00D098470E4B002B00D09847002061
:10027000002104000D000D48002802D00C48AFF307
:10028000008028F06FFD2000290001F04FFA28F0CF
:1002900043FD00BF00000800000004200000000033
:1002A00000000000680400207857002000000000D3
:1002B0000000000048B1C3693BB1036A2BB1406A3A
:1002C000B0FA80F04009404270474FF0FF3070476D
:1002D00030B41C4673B1DD6965B17AB19B78012BEE
:1002E00008BF40F080001346AC460A4601466078DD
:1002F00030BC60474FF0FF3030BC70476FF00B00F0
:10030000FAE72DE9F8430746894690461C46002B3C
:1003100034D01D6A002D31D0002A32D09B78012BB9
:10032000237A08BF00F07F07112B02D0237C152B06
:1003300021D143464A4639466078A847636A054654
:1003400001209847002D18BF6FF001052846BDE831
:10035000F883256A607801234A44A847636A054602
:10036000012098473346DAB2B9184245C9B203F1C1
:100370000106EED3E6E700231D46F4E74FF0FF3514
:10038000E4E76FF00B05E1E737B5002305460C46BF
:10039000ADF804308DF8063003220B46552001A934
:1003A000FFF796FFE0B9174A6B789DF80600D35C1B
:1003B0009DF80420D94349B20A4001402878032817
:1003C0001DD8DFE800F003020F151A438DF8042052
:1003D0008DF806102346032201A95520FFF791FF4F
:1003E00003B030BD0B438DF806308DF80420F1E7E3
:1003F0001A430B438DF804208DF80630EAE76FF0BE
:100400000300EDE79CA2020073B502AC002304F8E0
:10041000013D06460D460B46012221465620FFF7B8
:1004200057FFD8B97378124AD15C9DF807200801AC
:1004300022EA0102C0B222EA00033278032A14D869
:10044000DFE802F010020F0E40EA03018DF80710FA
:100450002B46012221465620FFF753FF02B070BD04
:1004600001430B438DF80730F2E76FF00300F5E727
:100470009CA20200F7B502AC002304F8013D05463A
:100480000E460B46012221465320FFF721FF00288C
:1004900053D1A97895F800E09DF8073001F0010CE0
:1004A000C1F34007C1F38002BEF1010FC1F3C001E7
:1004B000C8B244D123F0080343EACC0323F0040379
:1004C00043EA870323F0020343EA420323F00103D4
:1004D0000B438DF807300122334621465320FFF7A6
:1004E00010FF50BB8DF807003346012221465420EF
:1004F000FFF7EEFE08BB29789DF80730AA7801299E
:10050000C2F300120BBF23F0100323F0200343EAD1
:10051000021343EA42138DF807309DF807306A88CA
:1005200023F00F03C2F3431213438DF80730012267
:10053000334621465420FFF7E4FE03B0F0BD03F03C
:100540007F0343EACC1323F0400343EA871323F0ED
:10055000200343EA421323F0100343EA0013B8E7F1
:1005600037B5B6238DF80730044618B3436A0BB38A
:10057000034601220DF107017E20FFF7C2FE636AE8
:1005800005460120984745B9A278012A08D00B4AB0
:100590000B4B6260C4E902232361284603B030BDDF
:1005A00023460DF107017F20FFF792FE0028EED0D1
:1005B0000546F2E74FF0FF35EFE700BF10080302F2
:1005C0001408000273B50546FFF774FE0446C8B967
:1005D000AA78012A0DD000232B700426013E16F0C4
:1005E000FF061AD02B78D12B0FD1DCB16FF00204AB
:1005F00008E02B460DF107017F20FFF769FE002878
:10060000E9D00446204602B070BD2B46012229469F
:100610000020FFF75DFE0446E0E7002CE6D12B78D2
:10062000D12BE3D1FF23EB702846FFF799FFE8E7D2
:1006300037B50446002878D0436A002B75D002797C
:10064000A2F11001002302298DF8063002D96FF0C3
:10065000030553E0017A914236D08DF8073001222C
:1006600003460DF106014020FFF732FE0546002843
:1006700044D122799DF80630122A42D163F07F03DB
:100680008DF80630012223460DF106014020FFF7C8
:1006900038FE054690BB234602220DF10701582083
:1006A000FFF72FFE054648BB23460122211D7E2071
:1006B000FFF727FE237A102B054602D1636A052037
:1006C000984723792372CDB9237BA3F11402012A21
:1006D00001D9172BBBD1227C9A4229D02346012273
:1006E00004F10C017E20FFF70CFE237C142B054641
:1006F00013D1636A51209847237B2374284603B0A3
:1007000030BD1A06D0D503F07F038DF806300122E4
:1007100023460DF106014020C2E7172BECD1237BC5
:10072000152BE9D1636A0A20E5E74FF0FF35E5E7CD
:100730000025E3E737B50446002800F0C980436A86
:10074000002B00F0C58002AD002325F8043D0222F5
:10075000034629464020FFF7BBFD20B962790C2AE9
:1007600003D96FF0030003B030BD637A934208D021
:100770009DF8043002F00F0223F00F0313438DF8AD
:100780000430E379072BECD8E27A9A4209D09DF83D
:1007900004201B0103F0700322F0700213438DF854
:1007A0000430A2790C2ADCD8A37A934208D09DF8B1
:1007B000053002F00F0223F00F0313438DF80530CC
:1007C0002346012229464020FFF79BFD0028CAD17D
:1007D00063796372E379E372012223460DF1050127
:1007E0004120FFF78EFD0028BDD1A279A272ADF89D
:1007F00004002346022229464220FFF769FD002813
:10080000B1D1627B0D2AACD8637C934208D09DF8AD
:10081000043002F00F0223F00F0313438DF804306D
:10082000E27B022A9DD89DF8043023F0300343EA8E
:100830000213A27B8DF80430042A92D8A37C934241
:1008400008D09DF8053002F0070223F00703134398
:100850008DF805302346012229464220FFF751FD3D
:10086000002880D1637B6374E37BE3740122234619
:100870000DF105014320FFF744FD00287FF473AF1D
:10088000A37BA3742046FFF7D3FE00287FF46BAF51
:100890008DF804002346012229460220FFF718FDA7
:1008A0009DF80430C3F34303012B08D0022B09D079
:1008B000032B0AD0072B08BF6FF0080053E76FF037
:1008C000050050E76FF006004DE76FF007004AE7BC
:1008D0004FF0FF3047E7F7B5437805460C460D2B40
:1008E00000F2E984DFE813F00E00A4006302CE01F9
:1008F000CE01D6022A0302048A0326017F04AE0435
:10090000C904E3040846FFF7D5FC002840F0D6846C
:1009100002AE0B4606F8040D012231465020FFF7C7
:10092000D7FC014600287AD12A799DF80430D007F7
:1009300077D5C2F3400703F0FC03C2F380003B43CA
:1009400043EA4003C2F3C00223F0040343EA8203F4
:100950008DF80430E1702346012231465020FFF724
:10096000D0FC00285BD121462846FFF783FD0028F4
:1009700055D18DF804002346012231466220FFF74D
:10098000A7FC00284BD19DF804309A070AD523F024
:1009900002038DF804300122234631466220FFF71E
:1009A000B0FCE0BB21462846FFF7EEFCB8BB8DF853
:1009B00004002346012231465920FFF789FC70BB11
:1009C0002B79C3F380129DF8043003F07F0343EAD0
:1009D000C2138DF804300122234631465920FFF717
:1009E00090FCE0B98DF80300ADF804002346012225
:1009F0000DF103015F20FFF76BFC80B99DF8033018
:100A000003F0FC038DF803308DF804306B798DF81A
:100A100005300222234631465F20FFF772FC03B007
:100A2000F0BD23F007038DF80430FF23E37092E755
:100A30000846FFF73FFC002840F0408402AE0B461A
:100A400006F8040D012231465020FFF741FC002832
:100A5000E5D19DF804302A7903F0F803970645BFE5
:100A600043F007038DF804308DF80430012358BF9C
:100A7000FF23E3700122234631465020FFF741FC5B
:100A80000028CCD121462846FFF7F4FC0028C6D127
:100A900021462846FFF778FC0028C0D18DF80400D5
:100AA0002346012231465920FFF712FC0028B6D117
:100AB0002B79C3F300129DF8043003F07F0343EA5F
:100AC000C2138DF804300122234631465920FFF726
:100AD00018FC0028A3D16B798DF80430012223463D
:100AE00031466020FFF70DFC002898D123460122F3
:100AF00031466220FFF7ECFB002890D12A799DF85F
:100B0000043002F0030123F00C0343EA810323F0D5
:100B10003003C2F3810143EA0113C2F3401223F010
:100B2000020343EA42038DF8043001222346314692
:100B3000622072E70846FFF7BDFB002840F0BE8345
:100B400002AE0B4606F8040D012231465220FFF793
:100B5000BFFB00287FF463AF2A79D00741BF9DF81F
:100B6000043023F0010343F001038DF804309107B2
:100B700041BF9DF8043023F0020343F002038DF8D7
:100B80000430530741BF9DF8043023F0040343F0C1
:100B900004038DF804300122234631465220FFF72A
:100BA000B0FB00287FF43BAF21462846FFF762FCEC
:100BB00000287FF434AF21462846FFF7E5FB0028E4
:100BC0007FF42DAF8DF804002346012231465920D1
:100BD000FFF77EFB00287FF422AF6B79C3F380021E
:100BE0009DF8043003F07F0343EAC2138DF804300C
:100BF0000122234631465920FFF783FB00287FF46A
:100C00000EAF8DF80300ADF80400234601220DF16C
:100C100003015F20FFF75CFB00287FF400AFAB8887
:100C2000C3F3C5029DF8033003F0030343EA8203D4
:100C30008DF80330012223460DF103015F20FFF7F9
:100C400060FB00287FF4EBAE234601220DF1030187
:100C50006220FFF73DFB00287FF4E1AE9DF80330F2
:100C60006A7923F00103C2F3400213438DF8033085
:100C70008DF80530AB798DF80430022223463146D9
:100C80006120CAE60846FFF715FB002840F01683EE
:100C900002AE0B4606F8040D012231465020FFF744
:100CA00017FB00287FF4BBAE69789DF804306A79A1
:100CB00004290CBF23F0200323F01003C2F3C00269
:100CC0000CBF43EA421343EA02138DF804300122B9
:100CD000234631465020FFF714FB00287FF49FAED7
:100CE00021462846FFF7C6FB00287FF498AE214630
:100CF0002846FFF7BFFB00287FF491AE2146284627
:100D0000FFF742FB00287FF48AAE8DF804002346EB
:100D1000012231465820FFF7DBFA00287FF47FAE2E
:100D20006B79C3F380029DF8043023F0080343EA93
:100D3000C2038DF804300122234631465820FFF7C4
:100D4000E0FA00287FF46BAEADF8040023460222DF
:100D500031466320FFF7BCFA00287FF460AE6A7862
:100D60009DF80430032A01BFAA8823F00703C2F3C9
:100D7000C21213432A7923F04003C2F3401143EA1D
:100D8000811303F07F03C2F3801143EAC1138DF88E
:100D900004309DF80530C2F3040223F01F0313430F
:100DA0008DF80530022223463146632035E6084699
:100DB000FFF780FA002840F0818202AE0B4606F869
:100DC000040D012231465220FFF782FA00287FF4F9
:100DD00026AE2B7903F001029DF8043023F00803BE
:100DE00043EAC2038DF804300122234631465220E3
:100DF000FFF787FA00287FF412AE21462846FFF756
:100E000039FB00287FF40BAE21462846FFF7BCFAD9
:100E100000287FF404AE2B79ADF8040013F0C00372
:100E200004D140F21533ADF8043004E0402B07D173
:100E30002D238DF804302346022231467A20ECE53A
:100E4000802B02D140F21D73EDE7C02BF3D1234676
:100E5000022231467A20FFF73BFA0028EBD12A79AB
:100E60009DF80430C2F3410123F0180343EAC103A3
:100E7000C2F3C20223F0070313438DF804306A79EA
:100E80009DF80530C2F3020223F0070313438DF8E7
:100E90000530D0E70846FFF70DFA002840F00E8233
:100EA00002AE0B4606F8040D012231465020FFF732
:100EB0000FFA00287FF4B3ADAB7903F001029DF87F
:100EC000043023F0400343EA82138DF804300122FA
:100ED000234631465020FFF714FA00287FF49FADD7
:100EE00021462846FFF7C6FA00287FF498AD214630
:100EF0002846FFF749FA00287FF491ADADF80400C9
:100F00002346022231466520FFF7E2F900287FF4EC
:100F100086AD2B79C3F3010203F0FC0313438DF874
:100F200004306B79C3F3050203F0C00313438DF85B
:100F3000053002222346314665206EE50846FFF75C
:100F4000B9F9002840F0BA8102AE0B4606F8040D4C
:100F5000012231465020FFF7BBF900287FF45FAD36
:100F60006B79C3F3C0029DF8043003F07F0343EABA
:100F7000C2138DF804300122234631465020FFF77A
:100F8000C0F900287FF44BAD21462846FFF772FADE
:100F900000287FF444AD21462846FFF7F5F90028E4
:100FA0007FF43DADADF804002346022231466720B0
:100FB000FFF78EF900287FF432AD9DF804302A79CE
:100FC00023F03F03C2F3050213438DF804306B791D
:100FD000C3F341029DF8053023F0300343EA0213C6
:100FE000AA885BB2C2F3821223F0070313438DF881
:100FF000053002222346314667200EE50846FFF7FA
:1010000059F9002840F05A8102AE0B4606F8040D4B
:10101000012231465120FFF75BF900287FF4FFAC35
:10102000AB79C3F300129DF8043023F0080343EAC0
:10103000C2038DF804300122234631465120FFF7C8
:1010400060F900287FF4EBAC21462846FFF712FA3E
:1010500000287FF4E4AC21462846FFF795F90028E4
:101060007FF4DDAC8DF80400234601223146582080
:10107000FFF72EF900287FF4D2ACAB79C3F3C0029E
:101080009DF8043003F07F0343EAC2138DF8043067
:101090000122234631465820FFF733F900287FF418
:1010A000BEAC02A9ADF80400234601F8020D0122EE
:1010B0005C20FFF70DF900287FF4B1AC9DF8062005
:1010C000AB7902F0F802C3F301010A4303F0040311
:1010D00013438DF806306B798DF805302B798DF838
:1010E00004300322234631465A2096E40846FFF78F
:1010F000E1F8002840F0E28002AE0B4606F8040D4D
:10110000012231465120FFF7E3F800287FF487AC35
:101110002B799DF80410C3F3000001F0FC0101439A
:1011200003F002020A4322F0040203F00403134313
:101130008DF804300122234631465120FFF7E1F8B3
:1011400000287FF46CAC21462846FFF793F900286D
:101150007FF465AC21462846FFF716F900287FF496
:101160005EAC8DF804002346012231465820FFF77B
:10117000AFF800287FF453AC2B79C3F340129DF8ED
:10118000043003F07F0343EAC2138DF804300122D8
:10119000234631465820FFF7B4F800287FF43FACCF
:1011A000ADF804008DF806002346012231465C208C
:1011B000FFF78EF800287FF432AC2B79C3F3C1021D
:1011C0009DF8043003F03F0343EA82138DF80430A6
:1011D000AB798DF805306B798DF806300322234604
:1011E00031465C2019E40846FFF764F8002865D111
:1011F00002AE0B4606F8040D012231465120FFF7DE
:1012000067F800287FF40BAC9DF8043023F010033E
:1012100043F010038DF8043001222346314651205B
:10122000FFF76FF800287FF4FAAB21462846FFF756
:1012300021F900287FF4F3AB21462846FFF7E4F8B4
:10124000FFF7EDBB002939D04B6ABBB302AE0023D8
:1012500006F8043D01220B4651203146FFF738F8CD
:1012600000287FF4DCAB9DF804302A7A23F02003B9
:1012700002F0010243EA4213CCE7F9B14B6AEBB149
:1012800002AE002306F8043D01220B4651203146F0
:10129000FFF71EF800287FF4C2AB9DF804302A7ACD
:1012A00023F04003C2F3400243EA8213B2E7FFF7A0
:1012B000E1F8FFF7B4BB0020FFF7B1BB4FF0FF3000
:1012C000FFF7ADBB0F2870B504460E46154606D194
:1012D00013461C200422BDE87040FEF7F9BF10F051
:1012E000010004D013461C200122FEF7F1FFA107E4
:1012F00005D501222B46B1181D20FEF7E9FF620734
:1013000005D52B460122B11C1E20FEF7E1FF230765
:1013100004D52B460122F11C1F20DCE770BD012003
:1013200070470000F0B51C4683B008330546DB0863
:1013300010466A46A2EBC30302AF9D4622468DF8D3
:10134000081001460DF1090027F05FFD02AE0022F2
:10135000631C0092DBB2324629460B4800F0A2FE25
:1013600078B10A4B5B88022B09D90948094B0A4915
:10137000C01AC008000440F0030001F0E7FA4FF083
:10138000FF300437BD46F0BDE4A30200F0030020A7
:10139000F0C10200B0C1020059A3020038B540F20A
:1013A000AD124FF416710BF037FF1C2105460BF000
:1013B0006FFE037D012B0CD1C27C0B2A06D1064B9C
:1013C000002428461C700BF005FD234683F0010025
:1013D00038BD0123FAE700BF8904002008B54FF4A7
:1013E0000A724FF416710BF017FFBDE808400BF0BE
:1013F000F1BC0000084B00221A60084B5B88022BEE
:1014000009D90748074B0849C01AC008000440F032
:10141000030001F09BBA7047BC3F0020F00300209E
:10142000F0C10200B0C102008EA302007FB51546D4
:1014300004AA1E46002302F8011D0446009301463B
:101440000123154800F02EFE90B1144B5B88022B4F
:1014500003D84FF0FF3004B070BD1148114B124952
:10146000C01AC008000440F0030001F06FFAF0E772
:10147000F3B22A462146084800F02FFE0028EAD0A1
:10148000064B5B88022BE4D90548064B0749C01A76
:10149000C0080004E7E700BFE4A30200F003002057
:1014A000F0C10200B0C1020001A3020038A3020093
:1014B00038B5044620B90E48BDE838400BF085BC6D
:1014C0004FF4FE724FF416710BF0A6FE0B210BF0D9
:1014D000DFFD00210B22054627F0BBFC07F032FFA1
:1014E00003882B8120460021BDE8384018F0ECB974
:1014F000B11400001FB501238DF804309DF80630AB
:1015000003F0F80343F0050303F0F7036FF304134C
:101510008DF80630BDF806306FF34813ADF806308D
:1015200000238DF805309DF80830022243F00F03A8
:1015300062F30513DBB243F04003014601A88DF8C6
:1015400008308DF80920FFF7C6F904460146034824
:1015500027F04EFF204604B010BD00BF9CA402003F
:1015600010B5044615F008F820B12046BDE810403B
:10157000FFF79EBF022004F041FD54B1204640F227
:101580001F224FF416710BF047FEBDE810400BF020
:1015900021BC10BD38B5044638B1044D45F00105F5
:1015A0004FF47A40A847013CFAD138BDB0A30200FD
:1015B0001FB51B211A22CDE900124FF0CC72002377
:1015C00002920222039369468DF80C2006481A46BF
:1015D00000F068FA08B101F0CBFE044800F010FCFE
:1015E00005B05DF804FB00BFE0A30200E4A3020025
:1015F00038B5274B0362274BC361274B43626923EE
:101600004370002383700446FEF7DCFF234D6B8894
:1016100070BB022B09D92248224B2349C01AC008AB
:10162000000440F0030001F091F96B88022B0AD905
:101630001B481C4B22781D49C01AC008000440F00A
:10164000030001F087F91A4B63602046FFF772F838
:101650006B88022B024609D91248114B15491B1AF7
:10166000DB081B0443F0030001F074F9002038BDCF
:10167000022B09D90A480B4B0F49C01AC0080004B5
:1016800040F0030001F062F94FF0FF30EFE700BFD8
:10169000251300002D14000095150000F003002014
:1016A000F0C10200B0C10200A9A20200CAA2020059
:1016B000110C0C02D8A20200E0A202001FB50446E1
:1016C0000422002103A827F0C4FB224603A90F200F
:1016D000FFF7F8FDF0B99DF80C2012F004001AD0C5
:1016E0000E4B5B88022B13D90D490E489DF80E3026
:1016F000401AC008C3F3800100040191C3F3400104
:10170000009103F00103084940F0030001F038F9AB
:10171000012000E0002004B010BD00BFF003002055
:10172000B0C10200F0C10200B6A3020070B54FF4D0
:1017300000418CB0002000F0C9FE08B101F018FE95
:101740004E4C00F0E3FD6388022B09D94C484D4B09
:101750004D49C01AC008000440F0030001F0F6F83B
:10176000FFF726FF6388022B09D94548454B4749B7
:10177000C01AC008000440F0030001F0E7F801A817
:10178000FFF736FF01300CD16388022B09D93C48A2
:101790003C4B3F49C01AC008000440F0030001F070
:1017A000D5F801A8FFF7A6FE60B16388022B09D91E
:1017B0003348344B3749C01AC008000440F00300D6
:1017C00001F0C4F8344A354B1178197000231370B6
:1017D000334A13700BF098FE0BF098FE31480FF06F
:1017E00065FC4FF400100FF087FC01200FF066FC41
:1017F00006200EF079FCC3200EF07CFC2A4804F091
:10180000A3F90A200FF05EFE284BC0F803300FF05A
:1018100076FC638870B1022B09D91948194B244909
:10182000C01AC008000440F0030001F08FF8002047
:101830000CB070BD022B09D91148124B1D49C01ABA
:10184000C008000440F0030001F080F81A4C1B4D62
:101850001B4E0FF056FC01A8FFF730FF50B1216876
:1018600041B901234122284623600EF065FF30462E
:101870000BF0ABFA00F0DEFEEBE700BFF003002058
:10188000F0C10200B0C10200F0A30200FEA30200FA
:101890000CA4020040A402005D0100205C010020B5
:1018A000600100202C000020B50000209D130000E6
:1018B0005CA402006EA40200BC3F0020F5130000EF
:1018C0002519000030B540F2C71289B04FF41671E7
:1018D0000BF0A2FC00240546ADF81E4014F04CFEAF
:1018E000D0B10F4B012119702246022300942846E3
:1018F00010F072FA4FF482730622CDE902320A2305
:10190000CDE900430146049423460DF11E0228460A
:1019100010F012F909B030BD28460BF05BFAF9E778
:101920008904002010B50446FFF7CCFF084B5B8804
:10193000022B0CD90748084B0849C01AC0080004FC
:10194000224640F00300BDE8104001F003B810BD8E
:10195000F0030020F0C10200B0C1020083A4020025
:1019600010B9022004F04ABB70470000F7B502A985
:10197000002641F8046D054615F0D6F840F23A22EB
:1019800004464FF4167128460BF046FCB0F904707B
:10199000002F3CD1052C15D00DD8032C32D045B1E9
:1019A00040F29D224FF4167128460BF035FC0BF0E7
:1019B00011FA03B0F0BD0A2C1FD0132CEFD10FF099
:1019C00083FAECE7022004F019FB0BF03FF9044620
:1019D0000028E4D004210BF05BFB6FF003030370DD
:1019E0004FF0FF33437001238770C37020460BF024
:1019F0006FF90B4917F0B8FFD1E70A49204604F008
:101A00008DFFCCE7019B1879FFF7AAFFC7E7142CDD
:101A1000C5D04122314604480EF08EFEBFE700BF1C
:101A2000DD1300001F130000611500001FB50378CF
:101A30008DF8003003798DF8043043798DF8053046
:101A400083688DF80630C3688DF807300369029308
:101A500043690393054A064B684653F8213052F810
:101A60002110984705B05DF804FB00BF8C040020EE
:101A700094040020024B4FF4807043F00103184798
:101A8000D0A402001F2886BF00F01F00044A4FF0B8
:101A9000A042012303FA00F0C2F80805704700BF16
:101AA000000300502DE9F047904606783A4A42F884
:101AB00026803A4A42F826304B7B07460C46ABB3A9
:101AC0000B68DFF8E0904FF0A04103F5E07340F2BF
:101AD0000C6241F82320636803F5E073002541F8A8
:101AE00023202068FFF7CEFF6068FFF7CBFF236855
:101AF00003F5E07340F20D6241F82320636803F5BB
:101B0000E0734FF0010A41F82320FFF7B3FF636849
:101B10001F2B8ABF4A464FF0A04203F01F03D2F8A2
:101B2000102522FA03F3DB070DD515BBB8F1000F22
:101B300033461B4A214607F1040008BF0022BDE8D6
:101B4000F04700F0DBB823681F2B86BF03F01F03AC
:101B50004A464FF0A0420AFA03F3C2F80C35FFF7E9
:101B600089FF01352068FFF78DFFFFF783FF092DFF
:101B7000CDD163681F2B86BF03F01F0309494FF0C7
:101B8000A041012202FA03F3C1F80C35FFF772FFFE
:101B90006068FFF777FFC9E7940400208C040020F9
:101BA0002D1A0000000300500023435082B0435818
:101BB0000193019B02B07047F0B54C4A4C4CD2F8EF
:101BC000243187B01546A3B14FF492711046FFF748
:101BD000EBFFD2F8043163B9A368C2F808330223DB
:101BE000A360A368C2F8043301231362536107B0F2
:101BF000F0BDD5F80431002B49D03E4F3B484FF49F
:101C00008271FFF7D1FF0FCF01AE0FC63B68336083
:101C100094F82E307BB1237B012B0CBFD5F83C25EB
:101C2000D5F84C250292022B304B0CBFD3F83C3533
:101C3000D3F84C3503934FF4B0712C48FFF7B4FF41
:101C40004FF4AE712948FFF7AFFF94F8303013B16D
:101C500094F82E303BB1254B0022C3F80022A2603D
:101C6000254AC3F80823214AD2F8C434C2F8C43440
:101C70009A0736D501238DF8003094F830300BB92F
:101C800084F82F30D4E9003168469847AFE74FF425
:101C9000A4711648FFF788FF237B83B9154F0FCF38
:101CA00001AE0FC63B68336094F83030002BDAD1B8
:101CB000C5F80032A360104BC5F80833D3E74FF4E2
:101CC0000073C5F8003240F20223A36003F1CE7323
:101CD000C5F80833A368C5F804330123AB602B6251
:101CE00085E713F0040318BF0223C4E70030004067
:101CF0009C040020A804002002029C012DE9F84F5A
:101D000006793A4D4FF0340A0AFB06FA05EB0A0948
:101D10009B4699F82D3007460C469046002B61D122
:101D20003349006802F0E2FE00285DD145F80A80E0
:101D3000C9F80800C9F804B089F82F0089F8300004
:101D4000637B89F8323023681F2B86BF03F01F03A3
:101D500028494FF0A04103F5E07340F20C6241F8CE
:101D6000232063681F2B86BF03F01F0321494FF018
:101D7000A04103F5E07341F82320D4E900213B683A
:101D8000C3F80825C3F80C15A268C3F82425B8F1D8
:101D9000000F1FD03968227B090B4BB2002BAEBF5E
:101DA00003F1604301F00F01134B4FEA4212D2B22C
:101DB000AABF03F561435A5483F800233B681B0B09
:101DC0005AB2012103F01F0301FA03F352090B4930
:101DD00041F82230342303FB0655012385F82D30CA
:101DE000BDE8F88F0820FBE71120F9E79C040020EC
:101DF000B91B00000003005014ED00E000E100E01A
:101E0000026803790621C2F80015044A342101FB57
:101E10000323022283F82D20704700BF9C0400207A
:101E20002DE9F843CB6803F06043B3F1005F0D4642
:101E3000904603D010221046BDE8F8830779964EED
:101E40000468964BC4F808334FF0340C0CFB076C55
:101E50009CF82F302BB1DCF80830C4F80433112281
:101E6000E9E712F0140F0CBF012300238CF82F3088
:101E70008946B9E80F000CF10C0EAEE80F00D9F856
:101E80000030CEF80030C8F300138CF830306B7897
:101E9000C4F888354FF482712046FFF785FE4FF471
:101EA0009271FFF781FE18F0010318BF0123C4F8F7
:101EB000503518F0020318BF0123C4F840352B78C1
:101EC000032B00F2C780DFE803F087AF68022B69BD
:101ED00003F06043B3F1005FACD14FF48073C4F8FA
:101EE00000326B68EA68C4F844254FF4A871C4F85E
:101EF0004835FFF759FE4FF4B071FFF755FE4FF428
:101F0000A471FFF751FE01232362A360D4F850317E
:101F1000002BFBD04FF4A8712046FFF745FEAB68BD
:101F20002A69C4F84425C4F84835342303FB076301
:101F30005B4A9A604FF482730821002218F0080F60
:101F400004D1287803281CBF012060503421794334
:101F500070187158002940F08280012523441968C7
:101F6000002900F089803421D4F8C434C4F8C43482
:101F700001FB0766002186F82F10002B3FF45BAFB2
:101F800013F0020F48F2012208BF032213F0040FDE
:101F900048F2022318BF1A464DE76B68EA68C4F896
:101FA0004425C4F848352B6903F06042B2F1005F64
:101FB0007FF440AFAA68C4F834354FF48453C4F8B2
:101FC0003825C4F80032342303FB076340F20222B1
:101FD0009A6001232362ADE76B68EA68C4F8442580
:101FE00018F0200FC4F848354FF0340310D003FB2D
:101FF00007634FF48072C4F80022294A9A604FF4B4
:10200000A471FFF7D1FD4FF4A4730122226293E77C
:102010004FF4007203FB0763C4F8002240F202226F
:102020009A604FF48273F0E76B68EA68C4F834256D
:10203000C4F838354FF48053C4F80032342303FB1E
:10204000076340F202229A600123236200214FF4C9
:10205000827372E74FF48273082107226EE718F04B
:10206000040F1CBF4FF400738360342303FB076627
:10207000B368C4F80433DEE6D4F8241100293FF431
:102080006EAF4FF492712046FFF78EFD25624FF43C
:102090008273656162E700BF9C04002002029C011C
:1020A00000020400F0B587B004460F461546002133
:1020B000142201A81E4626F0CCFE9DF830308DF883
:1020C0000570002B14BF2022002201A92046029691
:1020D0000495FFF7A5FE07B0F0BDF0B587B0044644
:1020E0000F461546002112220DF106001E4626F06D
:1020F000B0FE0123002201A920468DF804308DF89E
:10210000057002960495FFF78BFE07B0F0BD000046
:102110000649074A074B9B1A03DD043BC858D050B9
:10212000FBDC03F049FBFEF78BF8000060C2020005
:102130000000002068040020FEE7FEE7FEE7FEE75F
:10214000FEE7FEE7FEE7FEE7FEE7FEE7F0B595B047
:102150001C46164608460D4601F0F6FF1A9B0D93E5
:10216000CDE9086400242346082205A928460A94DC
:102170008DF82C400C9402F005F8079B0293BDF8F3
:102180001830ADF80C30BDF81A30ADF80E309DF8AF
:1021900014308DF8114003F00302012A1DD1BDF85F
:1021A0001440059EC3F3C203C4F383148DF81030AA
:1021B000A20008230EA9284601F0E4FFC6F39526E5
:1021C00008AB0093224602AB0EA9304600F0F0FCAB
:1021D000284601F0BDFF15B0F0BD022AF8D1BDF8C8
:1021E0001640C3F3C203A4098DF810300827082C49
:1021F000264628BF08263B4632460EA9284601F04F
:10220000C1FFA41B08AB02AA31460EA8374400F058
:1022100033FD002CEBD1DBE7014B01221A70704734
:10222000110500207047000070B50E4D06460FCD19
:1022300088B06C460FC495E80F0084E80F0008A929
:10224000002E4FF00603084A41F8203D08BF002247
:10225000064802F0EDF908B101F08AF8044B1E704F
:1022600008B070BDDCA40200192200001401002097
:10227000D004002007B5044B0093044A4023FFF725
:1022800065FF03B05DF804FB91220000D10400203B
:1022900038B50D4B0D4D002018700D4804782D5D9C
:1022A000D2B21C4665B1043003F030FA08B101F037
:1022B0005FF8084B1A7812B12378002BFBD038BD99
:1022C0000C3002F0F3FFF1E711050020C03F0020C1
:1022D00014010020D004002008B50848084A0378FB
:1022E000D35C3BB1043003F0B7F90020BDE80840EF
:1022F000FFF79ABF0C3002F07FFFF6E714010020D1
:10230000C03F00200120FFF78FBF000008B5FFF796
:10231000F9FF0421034800F0A9FB034B01225A7185
:1023200008BD00BF30C2020028010020037813F06E
:10233000040216D003F00303012B03D0022B09D0B3
:10234000012070470A6800880232C0F383100244FB
:102350000A60F5E70B684288023303EB92130B60C7
:10236000EEE71046704700002DE9F04F484C87B06B
:102370000F460546861C0020019201F0E7F923680C
:102380003B60D4E901231344226801339B1A04F211
:102390001C4704F5836A04F21448B34219D3019A26
:1023A0000023002A6CD0012262F3010343F00403EE
:1023B00065F389132168A2680A4003320E440020A5
:1023C00044F82230266001F0C3F9012007B0BDE8CF
:1023D000F08F0121384601F0F3F9504601F009FA77
:1023E000404601F006FA0DF118096068D4F808B00B
:1023F00049F8100D00EA0B00033004EB8000494659
:10240000FFF794FF029BB0B90BEA030204EB8202D0
:10241000D16803919A1C013303EA0B0B04EB8B0C7C
:1024200001F00303012B0292DCF80CB020D0022B48
:1024300004D083460BE00BEA0300DDE7BDF80E3065
:102440009B0903334FEA1B4B02EB93030293404675
:1024500001F0D2F908B1029B63605946384601F099
:10246000AFF9D4E901231344226801339B1A94E79E
:10247000BDF80C30C3F383134FEA1B4B1344E5E75D
:10248000022262F3010343F0040365F39F5391E7D3
:10249000E405002030B50A4B0A4A0B49D21AD2088B
:1024A00000239A4201D1052006E031F82350046848
:1024B000A54202D10360002030BD0133F1E700BF27
:1024C000B0C1020030C20200D00300202DE9F84F55
:1024D000224B2348FF229A600022C3F81824C3E944
:1024E0000022C3F8142483F8202401F0E6FD80467E
:1024F00088B91C481C4E1D4DDFF874A001F051FF37
:10250000AD1BED084446AC4208D1002318491948D8
:102510001A469C421BD14046BDE8F88F4FF0000997
:102520004F4606EBC40BBC420AD0142256F83710B3
:10253000DBF8000026F0D4FF0028C8BF09F101092C
:102540000137BD42EFD12AF824900134DBE701EBDB
:10255000830540F823206A800133DAE7E405002090
:1025600040C202001CA50200B0C1020030C202003D
:10257000D00300201004002007B5019031B9019A62
:10258000064B53F8320003B05DF804FB01A8FFF7D7
:1025900081FF0028F3D00020F5E700BFB0C10200A2
:1025A000094B013903EBC000032909D8DFE801F02A
:1025B0000A0204060420704700797047407970478A
:1025C0000020704702207047B0C1020030B5124CA5
:1025D00000EB400054F821508240072303FA00F03A
:1025E0006A4002400D4B6A40C2F3821044F8212039
:1025F00003EB8101C2F3C203834238BF0346C2F337
:102600004220834202F0070238BF03469A4238BF95
:102610001A464A8030BD00BF10040020D0030020BD
:10262000034BD3E90030C31A58425841704700BFEA
:10263000E40500202DE9F04F85B0FFF7F1FF0646D5
:10264000002840F018818D4DC5F81804BFF34F8F56
:102650006868AC6804AF47F8100D2040033005EB04
:1026600080003946FFF762FE009B18B1D5F81824A8
:10267000002A66D004EA0302991C013305EB8202AA
:10268000234005EB8303D268DB68029302F0030367
:10269000022B0192009169D1BDF8063078489DF86F
:1026A00004604FEA931ABAF1500FD14628BF4FF099
:1026B000500969F38F1309F10801ADF8063001F0F4
:1026C00014FDC6F3C2068046002800F0BB8001F06E
:1026D0003BFD01A900230822404601F048FD009976
:1026E00024EA01070137BF00B94538D95FFA89F9F3
:1026F00097B3FFB2A9EB0709214003315FFA89FBC9
:10270000B946604F05EB810108234A46404601F077
:102710002EFD37B109F108035A463946404601F00B
:1027200026FD009B0AF1030A03EB9A030093D5F8F8
:102730001834002B50D1D5F81044DFF85C910727EE
:102740006FE02A689A4204D86A60304605B0BDE856
:10275000F08F04EA030081E74A49BB46D4E72140F1
:10276000033108234A4605EB8101D7E7012B69D1E4
:10277000BDF804604248C6F38311062928BF06212C
:1027800061F3891602318900ADF8046001F0ADFCF7
:10279000C6F3C2068046002854D001F0D5FC0023C1
:1027A000082201A9404601F0E2FC0027BDF8042000
:1027B000C2F38312BB1C97424FEA8303B7D200993E
:1027C0004A1C21400331009205EB8101042240465E
:1027D00001F0CDFC0137E9E7404601F0B9FCFFF715
:1027E0001FFF80F00100C6B2AFE7E3685A79B2B1CB
:1027F0001B79BDF8081003EB430259F8211007FAC2
:1028000002F3052E03EA010323FA02F308BF0326AD
:10281000B34204D3236841461B6820469847E368C7
:102820001C68002CE1D1404601F092FC204600F0EB
:102830008DFFD5F818340BB9009B6B60002000F0B9
:1028400087FFCCE7D5F8104474B90F4B5B88012B98
:10285000C5D90E4B0E480F49C01AC008000440F0FD
:10286000020000F073F8BAE7236820469B68984797
:10287000E3681C68E8E7002667E700BFE40500207E
:1028800040C20200F0050020F0030020B0C10200A9
:10289000F0C1020028A50200100400202DE9F74F26
:1028A000284C80460F46924601A9012218469B46B5
:1028B000D4F80890FFF758FD88B3019D0026A91CA5
:1028C0005E4506EB010234D100211F4800F042FFB3
:1028D00080F310006A1C02EA090204EB8202000481
:1028E00005EA0903033340EA1840D06014F82320B6
:1028F00068F3C50204F8232034F8232066F3891214
:1029000024F8232054F82320012167F39F2244F860
:10291000232061F301026FF3820204F8232094F86C
:1029200020341BB1FFF786FE0028FBD103B0BDE8C1
:10293000F08F09EA020204EB82025AF82630D360D3
:102940000136BDE7E4050020000A002000231A46F6
:10295000FFF7A4BF13B502AC012344F8042D2246AF
:10296000FFF79CFF02B010BD1FB5CDE90123069B08
:10297000039301AA0323FFF791FF05B05DF804FB61
:102980001FB5CDE90023069B0293079B03936A467C
:102990000423FFF783FF05B05DF804FB2DE9F3473F
:1029A0008046304CD01C8A46174601A90022800878
:1029B000A568FFF7D9FC002840D0DDF80490A66890
:1029C00009F10200019001362840361AB6000330A2
:1029D000B74204EB80003BD83A46514626F015FA40
:1029E0000021214800F0B6FE80F3100009F1010338
:1029F0002B4004EB83034FEA184242EA0040D860C0
:102A000005EA0903033304EB830214F8231068F387
:102A1000C50104F8231034F823106FF38F1124F844
:102A20002310518867F38F11518014F8232002215D
:102A300061F301026FF3820204F8232094F820343A
:102A40001BB1FFF7F7FD0028FBD102B0BDE8F0870E
:102A50003246514626F0D9F9BA1B0AEB060104F1B9
:102A60000C00BBE7E4050020000A00202DE9F84334
:102A70001F4B8846D3F81014054600240A469AB91D
:102A8000E9680C71D3F81014A1B9C3F81054EB68BD
:102A90001A60184F184EF61BF6084FF00009B145A2
:102AA00011D12046BDE8F883D2681079A04218D031
:102AB0001268E4E7C968EA6809681160D3F810345D
:102AC000DB681D60E5E707EBC9034946DA79EB6887
:102AD000424528BF42461879FFF778FD09F1010900
:102AE000DDE701340A2CC9D14FF0FF34D9E700BF2C
:102AF000E4050020B0C1020030C2020010B5037A24
:102B0000052B0C460FD0437A23B1084A08492046CA
:102B100000F0D1FE0749204600F0CDFE2046BDE87A
:102B2000104000F0BDBE002AF8D0F3E783A50200F4
:102B300088A50200A8A5020073B5C38804460D4607
:102B400033B1144A00921449144A284600F0B3FEE7
:102B5000217A05291CD0637A4BB1A088FFF720FDAC
:102B60000F4B104953F82020284600F0A4FE227A8B
:102B70000D4BA08853F822600021FFF7FDFC0B49A4
:102B800003463246284602B0BDE8704000F093BECE
:102B900002B070BD83A5020093A502008BA50200C0
:102BA00050A5020088A50200B8A50200ABA502004E
:102BB0002DE9F04385B01F460C9D002306460C46C8
:102BC000904695F80C902B7329463846FFF7B4FFD2
:102BD000B8F1060F09D8DFE808F00412181F2833EF
:102BE00040003146284600F066FE0022294638465D
:102BF000FFF784FF85F80C9005B0BDE8F0832268EC
:102C00003146284600F057FEEFE7D4E9002331466D
:102C1000284600F050FEE8E7A36800933146D4E967
:102C20000023284600F047FEDFE7E3680193A3682E
:102C300000933146D4E90023284600F03CFED4E757
:102C400023690293E3680193A36800933146D4E9B2
:102C50000023284600F02FFEC7E76369039323692A
:102C60000293E3680193A36800933146D4E90023FB
:102C7000284600F020FEB8E708292DE9F84F8046E5
:102C80000E4617461C4635D8002593F80C901D7348
:102C900019461046FFF750FFDFF88CA0DFF88CB024
:102CA000AE4229D918F805205946204600F003FE07
:102CB0000135082DF4D11A49DFF874B0204600F030
:102CC000FAFD4FF0000A564524D918F80A507E2D17
:102CD00017D92E225946204600F0EDFD0AF1010ACF
:102CE000BAF1080FEFD1012221463846FFF706FF5F
:102CF00084F80C90BDE8F88F5146204600F0DBFDCB
:102D0000D6E726F053F82844427812F0970FE0D027
:102D10002A46DFE70349204600F0CDFDDEE700BF8D
:102D20007EA502007CA502007AA5020074A502001F
:102D300080A5020013B502AC002304F8053D019301
:102D40009DF80330032B08D904210DEB010001F09D
:102D50002DFC30B9019802B010BD204601F01CFCDA
:102D6000EEE70020F7E708B500F094FA00F090F8DD
:102D7000002001F0E1FB10B100F0E0F8FCE7FFF704
:102D8000D9FF26F04DFB01F091FC10B900F0D6F808
:102D9000FCE7BDE808400EF0FDB801F0FFB908B54A
:102DA00000F0CCF8FCE762B6704772B67047FFF7E8
:102DB000C1BF08B50EF0FEF84FF47053584308BD7C
:102DC00038B50D4614465AB151B148B101F0B2FCC4
:102DD0002946204601F084FC10B900F0AFF8FCE76A
:102DE00038BDEFF30580003018BF012070470000A8
:102DF00000487047A00A0020704708B506F0A2FA04
:102E0000437B1BB1BDE8084001F0DEB908BD0000FE
:102E100008B522F031F8022802D0002004F0C2FBED
:102E200001F0AAFB0748084A0378D35C33B10430A9
:102E300002F012FCBDE8084024F054BB0C3002F054
:102E4000DBF9F7E714010020C03F002008B500209F
:102E500001F072FB10B100F071F8FCE7FFF752FAD5
:102E6000BDE8084024F02CBB10B5044670B1FFF754
:102E7000CFFF204600F04EFA01F0A6F900F068FA04
:102E80000446FFF7E3FF002C08BF0124204610BDD5
:102E900008B50AF045FC48B9054B1B7813B9054B3A
:102EA0001B781BB1BDE808400AF040BC08BD00BF5C
:102EB0005D010020600100202DE9F84307460E4621
:102EC0000AF02EFC58B1184C184BDFF86890DFF868
:102ED0006880E41AE408240444F003040EB9BDE851
:102EE000F883D9F80000C0F10805B542A8BF3546FF
:102EF0002A463946404425F088FFD9F800202A4464
:102F0000082AC9F800202F44A6EB0506E6D1084B95
:102F10005B88022B03D941462046FFF73FFD002383
:102F2000C9F80030DAE700BF28C20200B0C10200D1
:102F30000C040020EC0A0020E40A002010B50C4C20
:102F4000226882B10B4B5B88022B0AD90A480B4BD3
:102F50000B49C01AC008000492B240F00300FFF70A
:102F60001DFD00232360BDE81040FFF763BB00BFD9
:102F7000EC0A00200C04002028C20200B0C10200AC
:102F8000E40A00204FF0102358694FF08053411C91
:102F90001A695B6908BF03FB02F070470378022BD4
:102FA00001D80AF0D1BB704710B5FFF7EBFF0A4C10
:102FB0002061FFF7E7FF094B0949A0F54040E060B9
:102FC00000222046C3F8082100F038FE18B1BDE801
:102FD0001040FFF7E4BE10BD50040020F00A0020AE
:102FE00020A802004FF4804070470220704708B5C7
:102FF00013460A4631B143B10146184625F005FF94
:10300000002008BD6FF00A00FBE76FF00B00F8E747
:103010000128F8B507460C4616461D4612D80B4443
:10302000B3F5804F11D29AB1ADB1FFF7ABFFA4F564
:10303000404101EB873101442A46304625F0E5FE48
:103040000020F8BD6FF03800FBE76FF01600F8E7DE
:103050006FF00B00F5E76FF00C00F2E70128F7B511
:1030600007460C4616461D4626D80B44B3F5804F3E
:1030700025D23AB3AB0828D0FFF784FFA4F540442B
:1030800004EB873404440AF067FB07460028FAD1B2
:103090000AF052FB214600972B4632460C4800F0BE
:1030A00009FE04460AF058FB0028FBD1201C18BF7B
:1030B0000120404203B0F0BD6FF03800FAE76FF036
:1030C0001600F7E76FF00B00F4E76FF00C00F1E784
:1030D0005004002001282DE9F041064626D8FFF7CC
:1030E00051FF00EB8630A0F54044DFF84C8004F53A
:1030F00080470AF031FB05460028FAD10AF01CFB94
:103100002B4601222146404600F094FE88B90AF081
:1031100023FB05460028FAD104F58054BC42E8D1CF
:1031200030460AF021FB2846BDE8F0816FF03800F8
:10313000FAE74FF0FF30F7E75004002010B5084CD5
:10314000D4F8083153B19BB22246D4F8041194F854
:103150000001FFF783FF0023C4F8083110BD00BF52
:10316000F00A00202DE9F8431C4C1E46D4F8083123
:1031700081460F4690466BB194F80021824207D1F8
:10318000D4F804211A44914202D1B3F5807F01D1D1
:10319000FFF7D4FFD4F8080118B984F80091C4F8F7
:1031A0000471C0F58075B54234BFADB235464DB13E
:1031B0002A464146204425F028FED4F808312B4405
:1031C000C4F80831761BB6B216B93046BDE8F883AC
:1031D000FFF7B4FF2F44A844DCE700BFF00A00204B
:1031E00007B50C4B18680090FFF7CCFE0422A0F541
:1031F00080410DEB020025F008FE042269460DEB2C
:10320000020025F0F3FDB0FA80F0400903B05DF84C
:1032100004FB00BF23A6020070B506460D46144607
:10322000FFF7B0FEA4F57F543C3C324629462044CB
:10323000BDE87040FFF7DBBE0048704728A60200DB
:103240000422032102708170002206214270C170A5
:10325000426070477047B0F5A27F01D10AF086BA8C
:103260007047000010B5074C2378012B09D1FFF7F8
:10327000E3FF01F04FFDFFF7DFFF01F057FD0023F3
:10328000237010BD140C0020014B1878704700BF4C
:10329000140C00201FB502A8FFF7D2FFFFF7CCFFE8
:1032A000104A02A901F0BAFC08B1FFF778FDFFF758
:1032B000C3FF0368D3F81045FFF7BEFFE2B24FF437
:1032C0007031012421FA02F202232146009401F018
:1032D0007CFDFFF7B1FF01F00FFD034B1C7004B044
:1032E00010BD00BF57320000140C002008B5084B79
:1032F0001B780BB9FFF7CEFFFFF79EFF01F03EFDF5
:1033000028B9FFF799FFBDE8084001F0F5BC08BDFA
:10331000140C002010B5044625F0A0FB094B1860E2
:1033200074B1094B094A18604FF47A706043002168
:1033300058609A60D9601846BDE8104025F0B4BBCB
:1033400010BD00BFFC0B0020000C00205532000017
:1033500008B525F083FB054B1B68C3F57973033370
:1033600018444FF47A73B0FBF3F008BDFC0B002057
:103370001FB50021039001AA44F20100CDE901111B
:1033800004F02EFB05B05DF804FB0000024B4FF487
:103390003C6043F00103184730A6020038B50C4BDF
:1033A0000C4C4FF40032C3F8802001254FF48033D9
:1033B000C4F84833C4F808336560FFF7E7FF064BED
:1033C000A56000241C60FFF7E1FF044B1C7038BDB2
:1033D00000E100E000100140340D0020250D002028
:1033E000F8B51F491F4B0025C1F84051C1F84451A1
:1033F000C1F84851C1F84C51C1F80051C1F804510D
:103400001B684BB3D1F8044517490968641A24F0C6
:103410007F442F461A68A24209D8A41A15441A7C80
:10342000DE691AB11F74D3E905209047AEB90F4B7E
:103430000F4A197813788B4205D10133DBB2022B86
:1034400008BF0023137012780A4B43F822500A4B2E
:103450004FF48012C3F80021F8BD3346DAE700BF0D
:1034600000100140380D0020340D0020300D0020E8
:10347000310D0020280D002000E100E02DE9F74F7C
:103480009E4A9F49137809789E4D99423CD001335A
:10349000DBB2022B08BF002313709B4912789B4BB1
:1034A0000F6853F822003B1823F07F4300220B6083
:1034B0002B6816461446944613B942B12B6006E0B9
:1034C000196881420ED902B12B60091A19604FF0B8
:1034D00001082B68DFF83CA200930027BEB9DFF893
:1034E0003CB260E0401A0C44D968C3F800C0D3F87D
:1034F0001CE031B13A1922F07F42C3E90121DE61BB
:103500001E4601227346D7E70026B046E1E734465F
:10351000F6697D4A63681268DFF804C2A068991AE8
:1035200021F07F41614500F2A58001442160012224
:1035300022742A680023C4E90133E361002A40F0C1
:10354000A2802C60CAE75A1C9BF80210D2B29142AA
:103550008BF8002004BF00228BF80020182202FB09
:1035600003B32A6819799C68022974D003297ED094
:10357000012918D1217CB1B9DA6862601A69A260A8
:103580005A69E2609B69A361614B1B78002BC0D034
:103590006160BEE79C4200F093809946DB69002B96
:1035A000F8D1002323749BF800309BF801209A4245
:1035B000C9D12B682FB9009A934202D1B8F1000FFC
:1035C00043D0002B79D0D3F800A0524D4E4BD5F804
:1035D00004751C68DFF84C813E1B98F8003026F01B
:1035E0007F4603369BB94FF48033C5F84433C5F8A2
:1035F0000433494B4FF400324FF00109C3F88021E6
:103600001A60C5F80090FFF7C1FE88F80090B24537
:103610002CBF5444A41924F07F44C5F84045D5F884
:103620000435DB1B23F07F43E41B033324F07F448A
:10363000A3420AD9D5F80435C5F84035FFF7A6FEF0
:10364000354B4FF40032C3F80021314B00221A7081
:1036500003B0BDE8F08F13469146A0E71174D2691C
:103660000123002AFAD1002B9DD02A609BE700237A
:103670001946F6E7D31A23F07F43834234BFC31AB7
:103680000023236053E721681368994213D8591A1D
:103690001160E26155E7091AD8691A4638B1034644
:1036A00018688842F7D3401A1860184613462160FC
:1036B000E061DC6112E71346F2E7FFF76FFEC4E753
:1036C0004C450DD1D3692B6053B90F4801920121AC
:1036D000CAF8081003600E4B1970FFF757FE019AE5
:1036E000E1692368C9F81C1011B1086803440B6034
:1036F0002B689A4218BF012753E700BF300D002006
:10370000310D0020380D0020340D0020280D002040
:10371000240D00200010014000E100E0180C002002
:10372000FEFF7F00250D002072B6024A13680133A8
:10373000136070473C0D0020034A1368013B13607F
:1037400003B962B6704700BF3C0D0020FFF7ECBF25
:10375000FFF7F2BF50E8002F0B4640E8003C9CF01A
:10376000000FF7D11046704750E8002F42EA0103DE
:1037700040E8003C9CF0000FF6D11046704750E83E
:10378000003F43EA010240E8002C9CF0000FF6D114
:103790001046704750E8002F02EA010340E8003C61
:1037A0009CF0000FF6D11046704750E8003F03EA46
:1037B000010240E8002C9CF0000FF6D11046704743
:1037C00050E8003F03EB010240E8002C9CF0000FA2
:1037D000F6D11046704750E8003FA3EB010240E8E5
:1037E000002C9CF0000FF6D1104670470121FFF726
:1037F000BBBF0121FFF7C3BF0021FFF7CBBF0021F3
:10380000FFF7D3BF10B590B1D0E9012301689B1A2F
:10381000DBB20A60013BDBB2FF2B026802D1002061
:10382000107110BD11684C1C14600B70F2E70E2073
:10383000F7E738B504460020FFF788FF2268616883
:1038400013688B4215D9591E116013F8015CA28AC6
:10385000E36802FB05352268A36811685B1A1179D9
:10386000DBB2994200D213710020FFF771FF2846A6
:1038700038BD0025F8E738B5054600200C46FFF7AF
:1038800065FF2A681368591C1160E968641AA98ADF
:10389000B4FBF1F41C700020BDE83840FFF758BFBE
:1038A00010B5826804462AB14369016800699847E7
:1038B0000023A36010BD0EB403B5039929B102AA79
:1038C00004AB42F8043D00F073F802B05DF804EB7D
:1038D00003B070470A2938B504460D4602D10D21C0
:1038E000FFF7F8FFA3682268591CA160D554D4E9FA
:1038F00001329A4204D32046BDE83840FFF7D0BFDA
:1039000038BD00002DE9F84F9946DDE90A43174616
:10391000824688460A460126BA420FD24E4538BF33
:103920004E4613F0010B01D164B900240125B9F111
:10393000010F1AD909F1FF397D43F8E7B2FBF7F21D
:103940000136E9E79B070ED5B9F1000F0CBF302512
:103950002025A642EAD2013C29465046FFF7BAFF8D
:10396000002CF6D1E1E72025F3E7B8FBF5F39F4201
:10397000E2D9DFF83890B8FBF5F3504619F8031098
:1039800005FB1388FFF7A6FFB5FBF7F5002DF2D175
:10399000BBF1000F02D00CB1A64201D3BDE8F88FF5
:1039A00020215046013CFFF795FFF4E736A60200C0
:1039B0002DE9F74F054690460E46002900F03A8162
:1039C00016F8011B002958D0252940F0D180002786
:1039D00002E047F001071646324612F8013B2D2B54
:1039E000F7D0302B04D02B2B05D147F00407F2E79A
:1039F00047F00207EFE700242A2B06F101021BD152
:103A0000D8F80030191DC8F800101B6816461C4471
:103A100033782E2B1CD101364FF0000A314611F8B5
:103A2000012BA2F13000092814D80A2303FB0A2332
:103A3000A3F1300A0E46F1E712F8013CA3F1300180
:103A40000929E5D80A2101FB0434303C1646D3E7A6
:103A50004FF0000A324612F8011B01F0FB00682803
:103A60001646F8D0692916D054D8582970D00ED8E7
:103A700025297DD03378002BA2D12B7B002B00F0A1
:103A8000D980284603B0BDE8F04FFFF709BF63298E
:103A900068D06429EED1D8F80020111DC8F80010B4
:103AA000D2F8009089EAE972A2EBE9724FF0010BBB
:103AB000092A61DCD34538BFD3462CB1B9F1000FD8
:103AC00001DB790700D5013CBA0702D5BAF1000F36
:103AD00004D0FB0702D4002C54D10024B9F1000F0C
:103AE00058DAC9F100092D212846FFF7F3FE07F047
:103AF0000302022A05D1BAF1000F02D1002C4DD1E8
:103B00000024CDE9004753460A2249462846FFF7DC
:103B1000F9FEAFE7732954D016D87029AAD1D8F886
:103B200000301A1DC8F80020302128461C68FFF715
:103B3000D1FE78212846FFF7CDFE00220823CDE9EB
:103B4000003221461022E1E775292FD0782991D142
:103B5000D8F800100A1DC8F80020CDE900475346E8
:103B600010222CE0D8F800301A1DC8F8002019786F
:103B70002846FFF7AFFE7DE70A230BF1010B92FB0E
:103B8000F3F295E7A345A9D220212846013CFFF78F
:103B9000A1FEA0E77807AAD52B21A5E7A345B0D2BF
:103BA00030212846013CFFF795FEA7E7D8F8001022
:103BB000CDE900470A1DC8F8002053460A220968CB
:103BC000A4E7D8F800301A1DC8F80020F907D3F888
:103BD000009012D54F46A7EB090B17F8011B41B90E
:103BE000A345BFF447AF20212846013CFFF772FEF2
:103BF000F6E72846FFF76EFEEDE7B9F1000F17D0A4
:103C0000484625F065FC0746BC4200D954B909F185
:103C1000FF3919F8011F00293FF42CAF2846FFF7A0
:103C200059FEF6E720212846013CFFF753FEEBE75B
:103C30004F46E9E703B0BDE8F08F000007B50B463B
:103C4000A0B9154B5B886BB1144B1548154AC01AC7
:103C50000E23C0080093144B0004144940F00100E7
:103C6000FEF782FE0E2003B05DF804FB6BB90A4B31
:103C70005B88002BF6D0094B09480D4AC01AC008D2
:103C80000E2300930004084BE7E703601B6811460E
:103C900003B05DF804EB1847FC030020B0C102003C
:103CA00008C20200F3A6020046A60200F8A602001F
:103CB0006FA702002DE9F3419646B0B9504B5B88DF
:103CC000002B00F095804F4B4F48504AC01AC00857
:103CD0000E244F4B009400044E4940F00100FEF7C3
:103CE00043FE204602B0BDE8F0816AB9444B5B88D0
:103CF000002B7DD0434B4448474AC01AC0080E24CD
:103D000000040094424BE7E7D0F800C0BCF1000F7C
:103D10000DD13B4B5B88002B6CD03A4B3A483F4A65
:103D2000C01AC008082400040094394BD4E76BB9CA
:103D3000334B5B88002B5FD0324B3348384AC01A74
:103D4000C008092400040094314BC5E74768D7F840
:103D50000480B3FBF8F708FB17376FB1284B5B887B
:103D6000002B49D0274B28482E4AC01AC0080924E6
:103D700000040094264BAFE78F070DD0204B5B88E3
:103D8000002B3BD01F4B2048274AC01AC0081024E4
:103D9000000400941E4B9FE712F0030F0CD0184B49
:103DA0005B885BB3174B1848204AC01AC008102420
:103DB00000040094164B8FE7C768B9420BD34C1E22
:103DC00005691C44AC4206D8DCF80C40A44602B09D
:103DD000BDE8F04160470A4B5B887BB1094B0A485C
:103DE000134AC01AC008102400040094084B73E75B
:103DF0000E2476E7082474E7092472E7102470E79C
:103E0000FC030020B0C1020008C20200F3A60200B9
:103E100058A60200F8A6020075A7020069A70200D2
:103E200028A702007BA70200A5A70200BDA70200E9
:103E3000E0A70200F7B5A0B9374B5B88002B63D031
:103E4000364B3748374AC01AC0080E24364B009408
:103E50000004364940F00100FEF786FD204603B01D
:103E6000F0BDD0F800C0BCF1000F0DD12A4B5B882B
:103E7000002B4BD0294B2A482D4AC01AC0080824D1
:103E800000040094284BE4E76AB9234B5B88002BBD
:103E90003ED0224B2248274AC01AC00809240004F9
:103EA0000094214BD5E74768D7F800E00EF1FF37C3
:103EB0000F420CD0184B5B8863B3184B18481E4A4E
:103EC000C01AC008102400040094174BC1E7C7684B
:103ED000B9420CD34C1E05690EFB0244AC4206D815
:103EE000DCF81040A44603B0BDE8F04060470A4B40
:103EF0005B887BB1094B0A48104AC01AC0081024DD
:103F000000040094084BA4E70E24A7E70824A5E7C3
:103F10000924A3E71024A1E7FC030020B0C102009C
:103F200008C20200F3A602006BA60200F8A6020077
:103F300069A7020028A702007EA60200A4A602002C
:103F4000014B43600020704714A8020008467047E8
:103F500000207047024B1868003018BF01207047DE
:103F6000400D002008B50248FFF749FC002008BDBD
:103F7000400D002008B510461A4624F046FF0020E8
:103F800008BD00002DE9F041804686B013480E467A
:103F900015461F46FFF72AFC044630B1112018E0F1
:103FA00006EB043000F0D6FB0134A542F8D10B48F3
:103FB000FFF725FCD8F8083000246BB102226846D0
:103FC0008DF80020CDE90146CDE9034505979847D6
:103FD000204606B0BDE8F0811846FAE7400D002003
:103FE0002DE9F041804686B012480F4616461D4620
:103FF000FFF7FCFB0446D8B9AA083146384600F062
:10400000C1FB0C48FFF7FBFBD8F8083073B1012265
:104010008DF800200C9A05926846CDE90147CDE95C
:1040200003659847204606B0BDE8F0811846FAE7D8
:104030001120F8E7400D00202DE9F047B0F8069078
:104040004479D2F800A09DF8208009FB04F4043CD8
:1040500006460AEB0300A0420F4688BFA4EB030A02
:10406000191DC2F800A0B1FBF9F509FB15114DB9F6
:10407000A9EB0104544528BF5446BAF1000F04D1FE
:10408000BDE8F0873668013DF1E704317B1970180F
:104090002246B8F1000F0ED001461846AAEB040ADA
:1040A00024F0B3FED145254436684C464FF000015C
:1040B00028BF5446E1E71946F0E7FFF7A3BBF8B580
:1040C00046790146721E0546002393422D6803D3AC
:1040D0000024A64202D8F8BD0133F6E70F6828464F
:1040E000FFF7C9FB01343946F3E72DE9F843CD1C4E
:1040F000868A0746FFF79DFB043E35440446B5FB20
:10410000F6F5F0B14FF48073EDB28380C680013DC7
:10411000076081464FF00008A84512D23846FFF7E5
:1041200088FB064648B163790133637108F10108E1
:10413000C9F8000007608146EEE72046FFF7BFFFA1
:1041400034462046BDE8F88301210430FFF738BB30
:1041500010B5012104460430FFF73DFB10F0FF0FBE
:1041600004D12046BDE81040FFF7A9BF10BD1FB520
:1041700004AC44F8042D002200922246FFF75CFFB5
:1041800004B010BD1FB504AC44F8042D0122009208
:104190002246FFF751FF04B010BD0000064B10B5DA
:1041A00000241C70054B1C60BFF35F8F0449054859
:1041B00000F005F9204610BD4C0D0020500D0020E8
:1041C00040A80200440D002008B50020FFF7BEFA09
:1041D000F1EE103A23F09F03E1EE103ABFF35F8F48
:1041E000054B4022C3F884210020FFF7B1FA20BF1D
:1041F00040BF20BF08BD00BF00E100E002681368B7
:104200005268934291BFD01A80680130801888BFED
:10421000C01A70472DE9F84303681D685C68A54221
:1042200084BF836801331746884694BF641B5C1BB8
:10423000C2684168BC42064605FB02110CD37A43B2
:10424000404624F0E2FDB3683D449D4288BF00250E
:1042500033681D60BDE8F88304FB02F94A46404616
:1042600024F0D3FDF26871683C1B624308EB09003F
:1042700024F0CBFD33681C60ECE7036881681A68A2
:104280005B688B4234BF01330023D31A5842584134
:104290007047F8B5044600200D46FFF757FA204650
:1042A000FFF7EBFF10B1237C002B3DD12168A668FE
:1042B0004B684A68B24234BF013200224A6038B1CA
:1042C0002168A0680A68824234BF013200220A6075
:1042D000E2686068511E072920D8DFE801F0041069
:1042E0001F141F1F1F182A78C2542046FFF786FF8D
:1042F00023689A68824200D29860002415E02A88D8
:1043000020F81320F1E72A6840F82320EDE7D5E9EB
:10431000006700EBC300C0E90067E6E7294602FB3F
:10432000030024F072FDE0E704240020FFF710FAF8
:104330002046F8BD70B505460E46144682B10020F1
:10434000FFF704FA2846FFF759FFA0420AD3224696
:1043500031462846FFF75EFF00240020FFF7F8F9FA
:10436000204670BD0524F8E710B504460020FFF78D
:10437000EDF920680C22002124F06BFD0020BDE83F
:104380001040FFF7E5B910B504460020FFF7DEF94D
:104390002046FFF733FF04460020FFF7D9F92046F7
:1043A00010BD826800239360826813618268536144
:1043B0008268D360826853608268136070470160CE
:1043C0000B6843604A68934204BF00234360704710
:1043D00038B5084C04F108030546002818BF1C46F0
:1043E00023682BB11A6822605B6828469847F7E774
:1043F00038BD00BF5C0D002020B9054B01225A706A
:10440000FFF7E6BF012802D1014A9070F8E7704734
:10441000540D002038B5094C23786BB90848636007
:10442000A3602361E36000F0CDF9054600F0D8F900
:1044300001232370284638BD8525FBE7540D002055
:10444000F943000038B5134CA378054603F0FF008C
:1044500073B115B16B68012098470020FFF776F91A
:10446000E3680133E3600020BDE83840FFF770B92E
:10447000FFF76CF925B1226913463BB92A60256123
:10448000E368002BECD100F0BDF9E9E79D42F7D0DD
:104490001B68F2E7540D002038B5134C63780546CD
:1044A00003F0FF0073B115B16B680020984700203E
:1044B000FFF74CF96368013363600020BDE83840C2
:1044C000FFF746B9FFF742F925B1A26813463BB999
:1044D0002A60A5606368002BECD100F0A5F9E9E73C
:1044E0009D42F7D01B68F2E7540D002038B5084C08
:1044F0000020FFF72BF96368013B6360656815B91D
:1045000000F0A4F965700020BDE83840FFF720B93D
:10451000540D002007B502A901F8010D0548FFF769
:10452000B8FE0448FFF7A9FE08B100F045FB03B050
:104530005DF804FB98C1020038B50C4D2B7893B997
:104540000B4B0C49002808BF18460388284620F862
:10455000013F00F0F1FA044618B900F01BFB0123FB
:104560002B70204638BD8524FBE700BFB80D002026
:104570005BA802001545000008B500F01DFB00F027
:1045800023FB0348FFF7F0FE024B00221A7008BD20
:1045900098C10200B80D002010B504460248FFF78C
:1045A000F2FE207010BD00BF98C1020010B50A468F
:1045B00001460448FFF7BEFE044600F0EBFA204631
:1045C00010BD00BF98C102001FB503788DF8003000
:1045D0004368019383688DF80830C3680393054AE4
:1045E000054B684653F8213052F82110984705B022
:1045F0005DF804FBBC0D0020C40D00201FB503783E
:104600008DF800304368019383688DF80830C368E3
:104610000393054A054B684653F8213052F82110A0
:10462000984705B05DF804FBBC0D0020C40D0020C8
:10463000F0B5194B0778DFF870E043F82720174BE7
:1046400094460A6943F827204B7F0EF807300C4642
:1046500006460FCC89B06D460FC594E80F0085E87B
:104660000F00337804971EF8033053B1BCF1000FEC
:104670000B4A694608BF0022301D00F0FDFE09B05C
:10468000F0BDBCF1000F074A694608BF002206F1E1
:104690000C0000F0C9FCF2E7C40D0020BC0D0020A6
:1046A000C9450000FD450000C03F0020074A084BF7
:1046B0001360084A03F110011160074A03F1200159
:1046C0001160064A0120C2F804357047040E00202C
:1046D000D40D0020D00D0020CC0D002000E00040C3
:1046E00010B5114B04461868884202D0102224F0FD
:1046F0008CFB0E4B0022C3F8002101221A604FF000
:104700008070D3F8002162B10022C3F80021084B69
:104710001968A14203D01022204624F076FB012024
:1047200001E00138EDD110BDD00D002000E00040C7
:10473000CC0D0020024B01461022186824F065BB06
:10474000040E0020024AD2F80034002BFBD0704740
:1047500000E001400A4908B50223C1F80435BFF35F
:104760006F8FBFF34F8FC1F80805FFF7EBFF0023F2
:10477000C1F80435BFF36F8FBFF34F8F08BD00BF83
:1047800000E001400E4B10B50124C3F80445BFF30F
:104790006F8FBFF34F8F01EB8204401AA14208D103
:1047A000074B0022C3F80425BFF36F8FBFF34F8F71
:1047B00010BD431851F8042B1A60FFF7C3FFEDE753
:1047C00000E00140054A13792BB9012110601171F5
:1047D0005371184670478520704700BF080E0020AF
:1047E000074B1A68D2075FBFC02283F8002301225B
:1047F0001A604FF080430122C3F81825704700BFAC
:1048000000E100E0074B00221A6082B01B680193B0
:10481000019B4FF080430222C3F8042301229A60D7
:1048200002B0704704010040074B00221A6082B0BA
:104830001B680193019B4FF080430122C3F80423BE
:104840001A6002B0704700BF00010040074B012210
:104850001A604FF08042D2F80C3403F00113B3F128
:10486000011FF8D0024B00225A717047040000402B
:10487000080E002007B5154B1A687AB100221A609D
:104880001B680093009B4FF080430122C3F808236C
:104890000F4B587910B95A711B6898470D4B1A681D
:1048A00082B100221A601B680193019B4FF0804384
:1048B0000222C3F80823064B1B68012003B05DF8F1
:1048C00004EB184703B05DF804FB00BF0001004093
:1048D000080E00200401004000F1804000F5C040B7
:1048E000002382B0036003680193019B02B070470C
:1048F00003681F2B83BF03F01F03036001484FF0C1
:10490000A04070470003005007B502AB43F8040D08
:104910001846FFF7EDFF019B00EB8300D0F800374E
:1049200023F44033C0F80037D0F8003743EA0141A0
:10493000C0F8001703B05DF804FB00002DE9F04F4C
:10494000002489B0CDE902445F4A604E604D0121E8
:104950001368A2F5C040012B80B206D1D6F804330B
:104960000B4202D0FFF7B8FF0C430432AA424FEAD1
:104970004101EDD1574B1B68012B0ED14FF4BE7096
:10498000FFF7AAFF4FF0A04344F00044D3F81035DE
:104990000293514BD3F81035039314F0FF0F1AD044
:1049A0004E4F00250126344210D0AB0003F1804366
:1049B00003F5C043D3F81005D3F8101557F8253088
:1049C000C0F30520C1F3014103B198470135082D1B
:1049D0004FEA4606E7D1002C72DA04AE00230493B6
:1049E00073604FF0FF33CDE906333C4F4FF00108C1
:1049F00000252C467B1993F96020531C47D0D2B276
:104A000022F0C00908A84FEAD90300EB030B02F01B
:104A100007011BF8080C08FA01F1084237D007EB30
:104A20000900920990F9300057F820A0BAF1000F60
:104A300005D1032A2BD1F05C0843F05401E0032A8E
:104A4000F9D001A8CDF80490FFF752FF019B03F5C0
:104A5000E07350F823301BF8180C0842C3F30143ED
:104A600005D0022B13D1032A0BD1114604E0032BEE
:104A70000DD1032A05D102214846FFF745FF013435
:104A8000E4B2BAF1000F02D011464846D0470135D2
:104A9000042DAFD1A4B14FF0A0430299D3F8102553
:104AA00003F540739142D3F8103502D1039999422E
:104AB00006D002920393049A059B0692079397E708
:104AC00009B0BDE8F08F00BF006100400060004009
:104AD000206100407C61004000030050100E002067
:104AE000014B1B68184700BF7C0E002038B50A4BED
:104AF00098420D460CD10020FEF728FE074B1C798A
:104B000014B901221D601A710020FEF721FE0CB9B4
:104B1000002038BD1120FCE7002000407C0E002062
:104B2000034B984201BF034B00221A601A71704771
:104B3000002000407C0E002010B5124C2278FAB9FB
:104B4000114B1960037813F0010F104B1EBFD3F8FF
:104B5000042542F00102C3F80425D3F8002222F014
:104B60000102C3F800224378094A5B01DBB282F8F4
:104B70000D334FF40053136001232370002010BD48
:104B80008520FCE7880E0020840E002000D0004025
:104B900000E100E0064B00221A6082B01B6801931E
:104BA000019B044B0122C3F804231A6002B0704732
:104BB00000D1004000D00040024A0123C2F808336F
:104BC0005360704700D00040064A0123C2F8083302
:104BD0005360054B4FF40052C3F88020034B002272
:104BE0001A70704700D0004000E100E0880E0020FD
:104BF000074B00221A6082B01B680193019B054B92
:104C0000D3F80805044B1B68C0B202B0184700BFB8
:104C100000D1004000D00040840E0020F7B5067996
:104C2000324D0C2474432F193B7A002B5BD12A514F
:104C30004A687A609C461A4647790368D4B2A7420C
:104C400002F1010246D81B0BCC78294F5AB2002A38
:104C5000AEBF02F1604303F00F03264A4FEA44144B
:104C6000E4B2AABF03F56143D45483F80043036858
:104C70001B0B5CB26409012203F01F0302FA03F369
:104C800047F8243007684B78D7F8044503F003034E
:104C900024F003042343C7F8043507688B78D7F85A
:104CA000084503F0030324F003042343C7F8083541
:104CB00004680B78D4F8100503F00F0320F00F01FF
:104CC0000B43C4F810350C2303FB065500202A7251
:104CD00003B0F0BDA40004F5A07443F804C01B5950
:104CE0000193019BA8E70820F2E700BF8C0E00208B
:104CF00000E100E014ED00E0036801221A6003798E
:104D0000034A0C2101FB032302221A72704700BFE1
:104D10008C0E00200368044901221A6103790C20DB
:104D200000FB03131A7270478C0E002038B503681D
:104D30001B0B5AB20121520903F01F0301FA03F3BE
:104D400020320C4941F8223003680025D3F80022B4
:104D5000C3F8005203684FF0FF320446C3F808233B
:104D6000FFF7D8FF2379044A0C2101FB03231D72AE
:104D700038BD00BF00E100E08C0E00200379044A3A
:104D80000C2101FB0323187A831E584258417047B7
:104D90008C0E002073B54FF480348C4005688BB1C5
:104DA00001F150039B000026EE50EB580193019B4C
:104DB0000368C3F80443036801F5A87143F8212090
:104DC00002B070BDC5F80843F5E7F0B407689DF878
:104DD00010C0D7F8004240F201158D4024EA0504C6
:104DE000C7F800420568D5F800422343C5F80032F1
:104DF000F0BC6346FFF7CEBF2DE9F341104C114FD5
:104E0000114E00254FF48038236804F5C04080B26D
:104E10006BB1D7F8043308FA05F21A4207D0002321
:104E2000236023680193019BD6E90031984701353F
:104E3000062D04F10404E7D102B0BDE8F08100BF03
:104E400040A1014000A001408C0E002000234350EF
:104E500082B043580193019B02B070470A4610B5D7
:104E60004FF48E71FFF7F2FF136A9168C95C136A01
:104E700001331362C0F81C1510BD10B58B690A46CA
:104E80004FF4847123B9FFF7E1FFD0F8183510BD56
:104E9000FFF7DCFF536AD168D0F81805C854536A8D
:104EA00001335362F3E700001FB501238DF8003092
:104EB000044BCDE90110D3E900126846904705B0D4
:104EC0005DF804FB980E002030B54D4AD2F804334B
:104ED00013F4007F85B015464FD0D2F82431002B53
:104EE0004BD04FF492711046FFF7B0FF4FF40173AF
:104EF000C2F80833434B93F8291009B901215160D6
:104F00003F4902228DF80020D1F88024C1F8802486
:104F100003929A690292DA6801920022C3E906229A
:104F20006846D3E9001290473548D0F81C315BB190
:104F300034490A6A4B699A420A464CD291F82830A1
:104F4000002B48D1FFF78AFF2D4AD2F8443193B1A4
:104F50004FF4A2711046FFF779FF2A4B93F82910FE
:104F600009B1012111609A692AB100229A61586A37
:104F7000D968FFF799FF05B030BDD5F804335B075A
:104F8000D2D5D5F80831002BCED01E4C1C48214676
:104F9000FFF773FF636AA2699A422346C4D1E269AC
:104FA00052B12369E168E3600023606AA261E361B2
:104FB0006362FFF779FFB7E794F829200AB9012265
:104FC0006A600F4A4FF40171C2F8081300229A6117
:104FD000586AD968EDE74FF48E710948FFF736FF3C
:104FE00051690029B0D00023029191688DF80030FA
:104FF000019153616846D2E900139847A4E700BFC6
:1050000000200040980E00201F2886BF00F01F00DF
:10501000044B4FF0A04300F5E070022243F820203B
:10502000704700BF000300502DE9F8436C4F06792C
:1050300091462C2202FB0672054692F82A200C4665
:10504000002A40F0C68067490068FFF74FFD8046A0
:10505000002840F0C18023685A1C19D01F2B4FF044
:1050600001028ABF60494FF0A04103F01F0302FA1A
:1050700003F3C1F8083523681F2B86BF03F01F0315
:10508000594A4FF0A04203F5E073032142F8231080
:1050900061684B1C0BD01F2986BF01F01F01524BCA
:1050A0004FF0A04301F5E071002243F821202B6866
:1050B000A269C3F82425217D637D2A680B43C2F8C9
:1050C0006C35D4E900122B68C3F81425C3F80C150D
:1050D000237D012B32D1A168481C0BD01F2986BF2C
:1050E00001F01F01404B4FF0A04301F5E071002299
:1050F00043F82120E3685A1C19D01F2B4FF00102FE
:105100008ABF39494FF0A04103F01F0302FA03F3AD
:10511000C1F80835E3681F2B86BF03F01F03324A2E
:105120004FF0A04203F5E073032142F82310D4E9C5
:1051300002122B68C3F80825C3F810152C237343FB
:10514000FA18C2F804902269FA50B9F1000F2DD074
:105150004FF48E712868227FFFF778FE4FF4A2711A
:105160002868FFF773FE2B682049C3F804132968E9
:10517000090B4BB2002BAEBF03F1604301F00F01EE
:105180001B4B4FEA4212D2B2AABF03F561435A54F5
:1051900083F800232B681B0B5AB2012103F01F0375
:1051A00001FA03F35209134941F822302B68042213
:1051B000C3F800252C2303FB06730022C3E9062253
:1051C00083F829205A61012283F82A204046BDE84D
:1051D000F8834FF00808F9E74FF01108F6E700BF31
:1051E000980E0020C94E000000030050800002000D
:1051F00014ED00E000E100E02DE9F04103680479DE
:10520000274D0022C3F800252C2303FB045301463D
:105210005B6883B10368234AC3F8082303681B0B48
:105220005AB20120520903F01F0300FA03F320329F
:105230001D4840F822300B684FF0FF32D3F80C05C0
:10524000D3F81485D3F80865D3F81075C3F814257E
:10525000C3F80C250B689042C3F80825C3F8102545
:1052600001D0FFF7D1FEB8F1FF3F02D04046FFF773
:10527000CBFE7A1C02D03846FFF7C6FE731C02D064
:105280003046FFF7C1FE0868FFF74AFC2C2303FBFA
:105290000454002384F82A306360BDE8F08100BF25
:1052A000980E00208402020000E100E02DE9F8439E
:1052B000224B07794FF02C0909FB07340646656934
:1052C0009846002D35D16261A160256284F828508E
:1052D0004FF48E710068FFF7B9FD336801229A60C0
:1052E00021463068FFF7BAFD6368A1461BBB3568ED
:1052F000226A63699A4211D33368D3F81C21002AC9
:10530000FBD00122DA6000202C2303FB0787002357
:105310007B61BDE8F88394F8283043B9D5F81C3197
:10532000002BF8D049462846FFF798FDE0E70F200C
:10533000EAE71120EDE72846EBE700BF980E0020D2
:105340000023435082B043580193019B02B0704741
:105350001FB501238DF80030044BCDE90110D3E9CE
:1053600000126846904705B05DF804FBC40E0020AB
:105370007FB5374AD2F82461002E48D010464FF44A
:105380009271FFF7DDFF02238DF80030D2F88034F0
:10539000C2F880340393D2F83C3502932D4BDA687F
:1053A00001920022C3E906226846D3E90012904721
:1053B000274AD2F844317BB14FF4A2711046FFF76F
:1053C000BFFF244B996939B10021C3E90611D9689F
:1053D000D2F83C05FFF7BCFF1D4AD2F82031A3B13B
:1053E0004FF490711046FFF7ABFF1A4B596961B14A
:1053F000D2F84C150291002299688DF80020019195
:105400005A616846D3E90012904704B070BDD2F8E3
:105410001031002BCCD04FF488711046FFF790FF6D
:105420000C4BD2F83C0599698842C1D1DC69D96836
:1054300064B1D2F8005225F02005C2F800521A6972
:105440009C61DA60DE61FFF783FFB1E79C61FAE7F8
:1054500000200040C40E00201F2886BF00F01F005F
:10546000044B4FF0A04300F5E070022243F82020E7
:10547000704700BF000300502DE9F843704F0679D4
:105480009146242202FB0672054692F820200C4623
:10549000002A40F0CE806B490068FFF727FB80466A
:1054A000002840F0C98023685A1C19D01F2B4FF0E8
:1054B00001028ABF64494FF0A04103F01F0302FAC2
:1054C00003F3C1F8083523681F2B86BF03F01F03C1
:1054D0005D4A4FF0A04203F5E073032142F8231028
:1054E00061684B1C0BD01F2986BF01F01F01564B72
:1054F0004FF0A04301F5E071002243F821202B6812
:10550000A269C3F82425217D637D2A680B43C2F874
:105510006C35D4E900212B68C3F80C25C3F81415A9
:10552000237D012B32D1A168481C0BD01F2986BFD7
:1055300001F01F01444B4FF0A04301F5E071002240
:1055400043F82120E3685A1C19D01F2B4FF00102A9
:105550008ABF3D494FF0A04103F01F0302FA03F355
:10556000C1F80835E3681F2B86BF03F01F03364AD6
:105570004FF0A04203F5E073032142F82310D4E971
:1055800002122B68C3F80825C3F8101524237343AF
:10559000FA18C2F804902269FA50B9F1000F37D016
:1055A0004FF488712868227FFFF7CAFE4FF490718C
:1055B0002868FFF7C5FE4FF492712868FFF7C0FE18
:1055C0004FF4A2712868FFF7BBFE2B681F49C3F890
:1055D00004132968090B4BB2002BAEBF03F16043E3
:1055E00001F00F011A4B4FEA4212D2B2AABF03F5E3
:1055F00061435A5483F800232B681B0B5AB20121D4
:1056000003F01F0301FA03F35209124941F8223053
:105610002B680822C3F80025242303FB067300220D
:10562000C3E906225A61012283F820204046BDE8E2
:10563000F8834FF00808F9E74FF01108F6E700BFCC
:10564000C40E00207153000000030050100302003C
:1056500014ED00E000E100E02DE9F0410368047979
:10566000274D0022C3F80025242303FB04530146E1
:105670005B6883B10368234AC3F8082303681B0BE4
:105680005AB20120520903F01F0300FA03F320323B
:105690001D4840F822300B684FF0FF32D3F80C055C
:1056A000D3F81485D3F80865D3F81075C3F80C2522
:1056B000C3F814250B689042C3F80825C3F81025D9
:1056C00001D0FFF7C9FEB8F1FF3F02D04046FFF717
:1056D000C3FE7A1C02D03846FFF7BEFE731C02D010
:1056E0003046FFF7B9FE0868FFF71AFA242303FBD8
:1056F0000454002384F820306360BDE8F08100BFCB
:10570000C40E00201003020000E100E001F060433D
:10571000B3F1005F2DE9F041064634D11D4B077906
:10572000242505FB073598466C6974BB6A61A9603E
:1057300000684FF49071FFF703FE4FF4AC713068CE
:10574000FFF7FEFD33686A69A968C3F84415C3F81A
:105750004825336801229A606B68C3B93268D2F871
:105760002011D2F8583149B9002BF8D00F2024234A
:1057700003FB078700237B61BDE8F081002B14BF8A
:105780000F200020F3E71020F6E71120F4E7204671
:10579000F2E700BFC40E0020054B1B68082B01BFB9
:1057A000044B1868B0FA80F0400918BF0020704719
:1057B000300100103401001008B54FF08043002282
:1057C000C3F80C21C3F81021C3F838254FF08052DC
:1057D00003F54043D2F80414C3F82015D2F8081496
:1057E000C3F82415D2F80C14C3F82815D2F81014F5
:1057F000C3F82C15D2F81414C3F83015D2F81814C5
:10580000C3F83415D2F81C14C3F84015D2F820148C
:10581000C3F84415D2F82414C3F84815D2F8281454
:10582000C3F84C15D2F82C14C3F85015D2F8301424
:10583000C3F85415D2F83414C3F86015D2F83814EC
:10584000C3F86415D2F83C14C3F86815D2F84014B4
:10585000C3F86C15D2F84424C3F87025FFF79CFFF9
:1058600010B1384B384A1A60FFF796FF18B1374B22
:10587000FB22C3F81825FFF78FFF48B13449354B99
:105880000A681B6822F00F0203F00F0313430B603A
:10589000FFF782FF18B1304B4FF400721A604FF0DF
:1058A0008043D3F80024D20744BF6FF00102C3F84D
:1058B00000242A4AD2F8883043F47003C2F88830B2
:1058C000BFF34F8FBFF36F8F4FF01023D3F8002239
:1058D000002A03DBD3F80432002B2FDA204B0122FD
:1058E000C3F80425D3F80024002AFBD04FF010227F
:1058F0001221C2F80012D3F80024002AFBD04FF086
:1059000010231222C3F80422154B1A46D3F80014B0
:105910000029FBD00021C3F80415D2F80034002B75
:10592000FBD0BFF34F8F0D490E4BCA6802F4E06203
:105930001343CB60BFF34F8F00BFFDE70A4B0B4A09
:105940001A6008BD8C5600404881030000F00040FA
:10595000E40E0040580200104096024000ED00E0C6
:1059600000E001400400FA05300100200090D0035F
:1059700070B5194CB4F8FA5584F8063625F00705C9
:10598000054305F0E70545F48045A4F8FA55DD0127
:10599000022845EA810134BF0226002641EAC201FD
:1059A0003143342284F8FC1584F8FD2500211222AD
:1059B00084F8FE2588424FF06C0284F8FF2542F6F9
:1059C000412218BF4FF42852A4F80016A4F802266A
:1059D000A4F8041670BD00BFC43F002030B50A4DC6
:1059E000B5F8074624F00F04204320F0F00040EA09
:1059F000011020F4706040EA0220C0F30B0040EA7E
:105A00000330A5F8070630BDC43F002070B5837988
:105A10008B4205460C46164604D8A9214FF449602E
:105A200007F02CFC043425F8146070BD70B5C37900
:105A30008B4205460C46164604D8B7214FF4496000
:105A400007F01CFCAB791C44043425F8146070BDCD
:105A500070B51C4D1C4E95F80E260023082102F04F
:105A6000F00285F80F1663F30712092185F809364D
:105A7000A5F80A36A5F80C3685F8101685F80E2616
:105A800085F84C361C4605F2096536F81420E1B25B
:105A900028460134FFF7BAFF082CF6D10B4E0C4D07
:105AA0000024325DE1B228460134FFF7BFFF092C24
:105AB000F7D10C23032207210020BDE87040FFF737
:105AC0008DBF00BFC43F00209AA80200AAA8020010
:105AD000CD45002008B50A4B93F87921003218BF54
