:1000000000000420B5020000DD020000DF02000055
:10001000E1020000E3020000E50200000000000031
:10002000000000000000000000000000E7020000E7
:10003000E902000000000000EB020000ED020000F9
:10004000BD280000392A0300292B0000EF02000020
:10005000EF020000EF02000085290000EF0200001F
:10006000EF020000EF020000EF020000EF020000CC
:10007000EF020000112C0000EF020000EF02000070
:10008000EF020000A5140000EF020000EF020000E4
:1000900041150000EF020000EF020000EF02000037
:1000A000EF020000EF020000192E0000EF02000036
:1000B000EF020000EF02000000000000000000005E
:1000C000EF020000EF020000EF020000EF0200006C
:1000D0006D4F0300EF020000EF020000EF0200008E
:1000E000EF020000EF020000EF020000000000003D
:1000F00000000000EF02000000000000EF0200001E
:1001000000000000000000000000000000000000EF
:1001100000000000000000000000000000000000DF
:1001200000000000000000000000000000000000CF
:1001300000000000000000000000000000000000BF
:1001400000000000000000000000000000000000AF
:10015000000000000000000000000000000000009F
:10016000000000000000000000000000000000008F
:10017000000000000000000000000000000000007F
:10018000000000000000000000000000000000006F
:10019000000000000000000000000000000000005F
:1001A000000000000000000000000000000000004F
:1001B000000000000000000000000000000000003F
:1001C000000000000000000000000000000000002F
:1001D000000000000000000000000000000000001F
:1001E000000000000000000000000000000000000F
:1001F00000000000000000000000000000000000FF
:1002000010B5054C237833B9044B13B10448AFF350
:1002100000800123237010BD600500200000000055
:10022000C48A030008B5034B1BB103490348AFF36D
:10023000008008BD0000000064050020C48A03009F
:10024000154B002B08BF134B9D46A3F5803A0021A8
:100250008B460F461348144A121A35F0F6F90F4B25
:10026000002B00D098470E4B002B00D09847002061
:10027000002104000D000D48002802D00C48AFF307
:10028000008035F06BF92000290003F0F1FA35F019
:100290003FF900BF0000080000000420000000003B
:1002A0000000000060050020F8820020000000002F
:1002B000000000000649074A074B9B1A03DD043B78
:1002C000C858D050FBDC03F08BFBFFF7B9FF0000F0
:1002D000888B03000000002060050020FEE7FEE799
:1002E000FEE7FEE7FEE7FEE7FEE7FEE7FEE7FEE7E6
:1002F000F0B595B01C46164608460D4601F086FF3F
:100300001A9B0D93CDE9086400242346082205A911
:1003100028460A948DF82C400C9401F095FF079B19
:100320000293BDF81830ADF80C30BDF81A30ADF8B6
:100330000E309DF814308DF8114003F00302012AAD
:100340001DD1BDF81440059EC3F3C203C4F383144A
:100350008DF81030A20008230EA9284601F074FF82
:10036000C6F3952608AB0093224602AB0EA9304691
:1003700000F0D8FC284601F04DFF15B0F0BD022A70
:10038000F8D1BDF81640C3F3C203A4098DF81030AC
:100390000827082C264628BF08263B4632460EA9C9
:1003A000284601F051FFA41B08AB02AA31460EA853
:1003B000374400F01BFD002CEBD1DBE7014B0122A1
:1003C0001A707047BD0500207047000070B50E4DD3
:1003D00006460FCD88B06C460FC495E80F0084E840
:1003E0000F0008A9002E4FF02003084A41F8203DD5
:1003F00008BF0022064802F03FF908B101F01AF8E0
:10040000044B1E7008B070BD6C6A0300BD03000091
:10041000000000207C05002007B5044B0093044A2F
:100420004023FFF765FF03B05DF804FB35040000CF
:100430007D05002038B50D4B0D4D002018700D487E
:1004400004782D5DD2B21C4665B1043003F06EF91C
:1004500008B100F0EFFF084B1A7812B12378002B97
:10046000FBD038BD0C3002F031FFF1E7BD050020B4
:10047000AC650020000000207C05002008B508487D
:10048000084A0378D35C3BB1043003F0F5F8002050
:10049000BDE80840FFF79ABF0C3002F0BDFEF6E75A
:1004A00000000020AC6500200120FFF78FBF000096
:1004B00008B5FFF7F9FF0421034800F091FB034B57
:1004C00001225A7108BD00BF588B030014000020A0
:1004D000037813F0040216D003F00303012B03D0BA
:1004E000022B09D0012070470A6800880232C0F34D
:1004F000831002440A60F5E70B684288023303EB7D
:1005000092130B60EEE71046704700002DE9F04FA4
:10051000484C87B00F460546861C0020019201F02A
:1005200077F923683B60D4E901231344226801333F
:100530009B1A04F21C4704F5836A04F21448B34280
:1005400019D3019A0023002A6CD0012262F301031F
:1005500043F0040365F389132168A2680A4003325B
:100560000E44002044F82230266001F053F90120A7
:1005700007B0BDE8F08F0121384601F083F95046FD
:1005800001F099F9404601F096F90DF118096068FB
:10059000D4F808B049F8100D00EA0B00033004EB62
:1005A00080004946FFF794FF029BB0B90BEA0302B3
:1005B00004EB8202D16803919A1C013303EA0B0B0E
:1005C00004EB8B0C01F00303012B0292DCF80CB05E
:1005D00020D0022B04D083460BE00BEA0300DDE7BA
:1005E000BDF80E309B0903334FEA1B4B02EB93031C
:1005F0000293404601F062F908B1029B63605946DC
:10060000384601F03FF9D4E901231344226801334D
:100610009B1A94E7BDF80C30C3F383134FEA1B4BCE
:100620001344E5E7022262F3010343F0040365F398
:100630009F5391E79006002030B50A4B0A4A0B49B8
:10064000D21AD20800239A4201D1052006E031F8DF
:1006500023500468A54202D10360002030BD01335D
:10066000F1E700BFE08A0300588B0300D0040020AC
:100670002DE9F84F224B2348FF229A600022C3F84D
:100680001824C3E90022C3F8142483F8202401F0BD
:1006900076FD804688B91C481C4E1D4DDFF874A0BD
:1006A00001F0BCFEAD1BED084446AC4208D100236E
:1006B000184919481A469C421BD14046BDE8F88F9C
:1006C0004FF000094F4606EBC40BBC420AD014227F
:1006D00056F83710DBF8000035F0E6FA0028C8BFFE
:1006E00009F101090137BD42EFD12AF82490013404
:1006F000DBE701EB830540F823206A800133DAE76A
:1007000090060020688B0300AC6A0300E08A0300B7
:10071000588B0300D00400200C05002007B5019081
:1007200031B9019A064B53F8320003B05DF804FB6F
:1007300001A8FFF781FF0028F3D00020F5E700BFF4
:10074000E08A0300094B013903EBC000032909D8F3
:10075000DFE801F00A0204060420704700797047C0
:10076000407970470020704702207047E08A0300FC
:1007700030B5124C00EB400054F821508240072362
:1007800003FA00F06A4002400D4B6A40C2F3821047
:1007900044F8212003EB8101C2F3C203834238BF36
:1007A0000346C2F34220834202F0070238BF0346E9
:1007B0009A4238BF1A464A8030BD00BF0C0500205F
:1007C000D0040020034BD3E90030C31A58425841EB
:1007D000704700BF900600202DE9F04F85B0FFF76D
:1007E000F1FF0646002840F018818D4DC5F8180429
:1007F000BFF34F8F6868AC6804AF47F8100D204016
:10080000033005EB80003946FFF762FE009B18B10C
:10081000D5F81824002A66D004EA0302991C013393
:1008200005EB8202234005EB8303D268DB68029369
:1008300002F00303022B0192009169D1BDF806304A
:1008400078489DF804604FEA931ABAF1500FD146E8
:1008500028BF4FF0500969F38F1309F10801ADF873
:10086000063001F0A4FCC6F3C2068046002800F062
:10087000BB8001F0CBFC01A900230822404601F017
:10088000D8FC009924EA01070137BF00B94538D9DF
:100890005FFA89F997B3FFB2A9EB07092140033149
:1008A0005FFA89FBB946604F05EB810108234A4690
:1008B000404601F0BEFC37B109F108035A463946FB
:1008C000404601F0B6FC009B0AF1030A03EB9A03D1
:1008D0000093D5F81834002B50D1D5F81044DFF828
:1008E0005C9107276FE02A689A4204D86A60304614
:1008F00005B0BDE8F08F04EA030081E74A49BB4632
:10090000D4E72140033108234A4605EB8101D7E7AC
:10091000012B69D1BDF804604248C6F38311062952
:1009200028BF062161F3891602318900ADF8046001
:1009300001F03DFCC6F3C2068046002854D001F009
:1009400065FC0023082201A9404601F072FC002743
:10095000BDF80420C2F38312BB1C97424FEA830305
:10096000B7D200994A1C21400331009205EB810166
:100970000422404601F05DFC0137E9E7404601F002
:1009800049FCFFF71FFF80F00100C6B2AFE7E36844
:100990005A79B2B11B79BDF8081003EB430259F83C
:1009A000211007FA02F3052E03EA010323FA02F3EA
:1009B00008BF0326B34204D3236841461B68204680
:1009C0009847E3681C68002CE1D1404601F022FC06
:1009D000204600F01DFFD5F818340BB9009B6B6062
:1009E000002000F017FFCCE7D5F8104474B90F4B86
:1009F0005B88012BC5D90E4B0E480F49C01AC008A1
:100A0000000440F0020000F073F8BAE723682046C3
:100A10009B689847E3681C68E8E7002667E700BF23
:100A200090060020688B03009C060020EC04002048
:100A3000E08A0300188B0300B86A03000C0500204D
:100A40002DE9F74F284C80460F46924601A9012216
:100A500018469B46D4F80890FFF758FD88B3019DCF
:100A60000026A91C5E4506EB010234D100211F4877
:100A700000F0D2FE80F310006A1C02EA090204EBC7
:100A80008202000405EA0903033340EA1840D060FB
:100A900014F8232068F3C50204F8232034F8232037
:100AA00066F3891224F8232054F82320012167F3E8
:100AB0009F2244F8232061F301026FF3820204F8BD
:100AC000232094F820341BB1FFF786FE0028FBD1C9
:100AD00003B0BDE8F08F09EA020204EB82025AF883
:100AE0002630D3600136BDE790060020AC0A002016
:100AF00000231A46FFF7A4BF1FB5CDE90123069BCB
:100B0000039301AA0323FFF79BFF05B05DF804FBE5
:100B10002DE9F3478046304CD01C8A46174601A980
:100B200000228008A568FFF7F1FC002840D0DDF81E
:100B30000490A66809F10200019001362840361A97
:100B4000B6000330B74204EB80003BD83A4651462A
:100B500034F057FD0021214800F05EFE80F31000C4
:100B600009F101032B4004EB83034FEA184242EAE8
:100B70000040D86005EA0903033304EB830214F84C
:100B8000231068F3C50104F8231034F823106FF321
:100B90008F1124F82310518867F38F11518014F8B6
:100BA0002320022161F301026FF3820204F8232063
:100BB00094F820341BB1FFF70FFE0028FBD102B0E0
:100BC000BDE8F0873246514634F01BFDBA1B0AEBF4
:100BD000060104F10C00BBE790060020AC0A0020DF
:100BE0002DE9F8431F4B8846D3F81014054600241E
:100BF0000A469AB9E9680C71D3F81014A1B9C3F880
:100C00001054EB681A60184F184EF61BF6084FF098
:100C10000009B14511D12046BDE8F883D2681079AA
:100C2000A04218D01268E4E7C968EA680968116050
:100C3000D3F81034DB681D60E5E707EBC9034946CC
:100C4000DA79EB68424528BF42461879FFF790FDF4
:100C500009F10109DDE701340A2CC9D14FF0FF3455
:100C6000D9E700BF90060020E08A0300588B0300FC
:100C700010B5037A052B0C460FD0437A23B1084AEE
:100C80000849204600F079FE0749204600F075FE2D
:100C90002046BDE8104000F065BE002AF8D0F3E71A
:100CA000136B0300186B0300386B030073B5C38824
:100CB00004460D4633B1144A00921449144A28469A
:100CC00000F05BFE217A05291CD0637A4BB1A08825
:100CD000FFF738FD0F4B104953F82020284600F04D
:100CE0004CFE227A0D4BA08853F822600021FFF7BA
:100CF00015FD0B4903463246284602B0BDE8704058
:100D000000F03BBE02B070BD136B0300236B030009
:100D10001B6B0300E06A0300186B0300486B0300C1
:100D20003B6B03002DE9F04385B01F460C9D00236B
:100D300006460C46904695F80C902B73294638468B
:100D4000FFF7B4FFB8F1060F09D8DFE808F0041286
:100D5000181F283340003146284600F00EFE0022BE
:100D600029463846FFF784FF85F80C9005B0BDE8AA
:100D7000F08322683146284600F0FFFDEFE7D4E912
:100D800000233146284600F0F8FDE8E7A368009309
:100D90003146D4E90023284600F0EFFDDFE7E368A1
:100DA0000193A36800933146D4E90023284600F05C
:100DB000E4FDD4E723690293E3680193A3680093F9
:100DC0003146D4E90023284600F0D7FDC7E7636920
:100DD000039323690293E3680193A3680093314668
:100DE000D4E90023284600F0C8FDB8E708292DE91A
:100DF000F84F80460E4617461C4635D8002593F816
:100E00000C901D7319461046FFF750FFDFF88CA0B9
:100E1000DFF88CB0AE4229D918F805205946204693
:100E200000F0ABFD0135082DF4D11A49DFF874B09C
:100E3000204600F0A2FD4FF0000A564524D918F8CC
:100E40000A507E2D17D92E225946204600F095FDD6
:100E50000AF1010ABAF1080FEFD101222146384602
:100E6000FFF706FF84F80C90BDE8F88F5146204646
:100E700000F083FDD6E734F095FB2844427812F069
:100E8000970FE0D02A46DFE70349204600F075FDC2
:100E9000DEE700BF0E6B03000C6B03000A6B030060
:100EA000046B0300106B030013B502AC002304F8BD
:100EB000053D01939DF80330032B08D904210DEB68
:100EC000010001F097FB30B9019802B010BD204637
:100ED00001F086FBEEE70020F7E708B500F06AFABC
:100EE00000F068F8002001F05BFB10B100F0B8F8EA
:100EF000FCE7FFF7D9FF34F077FE01F0FBFB10B9F8
:100F000000F0AEF8FCE708BD08B500F0A9F8FCE772
:100F100062B6704772B67047FFF7C6BF08B511F0EA
:100F200069FA4FF47053584308BD0000034A431A4E
:100F3000934288BF0B1A1846704700BFFEFFFF7F21
:100F400010B50446FFF7EAFF0444FFF7E7FFA042AD
:100F500004D9FFF7E3FFA042FBD810BDFFF7DEFF87
:100F6000A042FBD3F9E738B50D4614465AB151B14A
:100F700048B101F003FC2946204601F0D5FB10B929
:100F800000F06EF8FCE738BDEFF30580003018BFC5
:100F900001207047004870474C0B0020704708B58F
:100FA00007F040FB437B1BB1BDE8084001F058B996
:100FB00008BD000008B50DF02FF948B9054B1B78A6
:100FC00013B9054B1B781BB1BDE808400DF02AB9D9
:100FD00008BD00BFA9010020AC0100202DE9F843A5
:100FE00007460E460DF018F958B1184C184BDFF8AB
:100FF0006890DFF86880E41AE408240444F00304ED
:101000000EB9BDE8F883D9F80000C0F10805B54273
:10101000A8BF35462A463946404434F0F2FAD9F89A
:1010200000202A44082AC9F800202F44A6EB050610
:10103000E6D1084B5B88022B03D941462046FFF7D7
:1010400067FD0023C9F80030DAE700BF508B0300CA
:10105000E08A030008050020980B0020900B002078
:1010600010B50C4C226882B10B4B5B88022B0AD95D
:101070000A480B4B0B49C01AC008000492B240F05A
:101080000300FFF745FD00232360BDE81040FFF794
:10109000A3BB00BF980B002008050020508B030065
:1010A000E08A0300900B00204FF0102358694FF0A6
:1010B0008053411C1A695B6908BF03FB02F070474B
:1010C0000378022B01D80DF0BBB8704710B5FFF7BD
:1010D000EBFF0A4C2061FFF7E7FF094B0949A0F538
:1010E0004040E06000222046C3F8082100F008FEDE
:1010F00018B1BDE81040FFF707BF10BD480500203C
:101100009C0B0020B06D03004FF48040704702201C
:10111000704708B513460A4631B143B10146184637
:1011200034F06FFA002008BD6FF00A00FBE76FF0A3
:101130000B00F8E70128F8B507460C4616461D4691
:1011400012D80B44B3F5804F11D29AB1ADB1FFF76D
:10115000ABFFA4F5404101EB873101442A463046FC
:1011600034F04FFA0020F8BD6FF03800FBE76FF065
:101170001600F8E76FF00B00F5E76FF00C00F2E7F0
:101180000128F7B507460C4616461D4626D80B44DF
:10119000B3F5804F25D23AB3AB0828D0FFF784FFD0
:1011A000A4F5404404EB873404440DF051F807469D
:1011B0000028FAD10DF03CF8214600972B46324624
:1011C0000C4800F0D9FD04460DF042F80028FBD190
:1011D000201C18BF0120404203B0F0BD6FF0380062
:1011E000FAE76FF01600F7E76FF00B00F4E76FF027
:1011F0000C00F1E74805002001282DE9F0410646E2
:1012000026D8FFF751FF00EB8630A0F54044DFF809
:101210004C8004F580470DF01BF805460028FAD1F4
:101220000DF006F82B4601222146404600F064FEF0
:1012300088B90DF00DF805460028FAD104F5805460
:10124000BC42E8D130460DF00BF82846BDE8F081ED
:101250006FF03800FAE74FF0FF30F7E7480500205D
:1012600010B5084CD4F8083153B19BB22246D4F8DB
:10127000041194F80001FFF783FF0023C4F808313C
:1012800010BD00BF9C0B00202DE9F8431C4C1E46EE
:10129000D4F8083181460F4690466BB194F800218E
:1012A000824207D1D4F804211A44914202D1B3F505
:1012B000807F01D1FFF7D4FFD4F8080118B984F872
:1012C0000091C4F80471C0F58075B54234BFADB269
:1012D00035464DB12A464146204434F092F9D4F8BF
:1012E00008312B44C4F80831761BB6B216B9304623
:1012F000BDE8F883FFF7B4FF2F44A844DCE700BF44
:101300009C0B002007B50C4B18680090FFF7CCFE33
:101310000422A0F580410DEB020034F072F90422A2
:1013200069460DEB020034F05DF9B0FA80F0400937
:1013300003B05DF804FB00BFB36B030070B5064655
:101340000D461446FFF7B0FEA4F57F543C3C3246F0
:1013500029462044BDE87040FFF7DBBE00487047D7
:10136000B86B030004220321027081700022062161
:101370004270C17042607047B0F5A27F01D10CF09D
:1013800071BF704710B5074C2378012B09D1FFF7C7
:10139000E5FF01F0CFFCFFF7E1FF01F0D7FC0023F0
:1013A000237010BDA80C0020014B1878704700BFB7
:1013B000A80C00201FB502A8FFF7D4FFFFF7CEFF4F
:1013C000104A02A901F03AFC08B1FFF79DFDFFF7B2
:1013D000C5FF0368D3F81045FFF7C0FFE2B24FF432
:1013E0007031012421FA02F202232146009401F017
:1013F000FCFCFFF7B3FF01F08FFC034B1C7004B043
:1014000010BD00BF79130000A80C002008B5084BE0
:101410001B780BB9FFF7CEFFFFF7A0FF01F0BEFC72
:1014200028B9FFF79BFFBDE8084001F075BC08BD77
:10143000A80C00201FB50021039001AA44F201006E
:10144000CDE9011104F082FC05B05DF804FB000059
:10145000024B4FF43C6043F001031847C06B03009C
:1014600038B50C4B0C4C4FF40032C3F880200125EA
:101470004FF48033C4F84833C4F808336560FFF78D
:10148000E7FF064BA56000241C60FFF7E1FF044B5B
:101490001C7038BD00E100E000100140C80D0020C4
:1014A000B90D0020F8B51F491F4B0025C1F8405168
:1014B000C1F84451C1F84851C1F84C51C1F800512C
:1014C000C1F804511B684BB3D1F8044517490968AA
:1014D000641A24F07F442F461A68A24209D8A41A3D
:1014E00015441A7CDE691AB11F74D3E905209047B0
:1014F000AEB90F4B0F4A197813788B4205D10133DF
:10150000DBB2022B08BF0023137012780A4B43F89A
:1015100022500A4B4FF48012C3F80021F8BD334625
:10152000DAE700BF00100140CC0D0020C80D0020FC
:10153000C40D0020C50D0020BC0D002000E100E01E
:101540002DE9F74F9E4A9F49137809789E4D99429D
:101550003CD00133DBB2022B08BF002313709B4940
:1015600012789B4B0F6853F822003B1823F07F43FF
:1015700000220B602B6816461446944613B942B1FC
:101580002B6006E0196881420ED902B12B60091A5E
:1015900019604FF001082B68DFF83CA20093002788
:1015A000BEB9DFF83CB260E0401A0C44D968C3F819
:1015B00000C0D3F81CE031B13A1922F07F42C3E9F0
:1015C0000121DE611E4601227346D7E70026B046A0
:1015D000E1E73446F6697D4A63681268DFF804C2C1
:1015E000A068991A21F07F41614500F2A58001446D
:1015F0002160012222742A680023C4E90133E361D7
:10160000002A40F0A2802C60CAE75A1C9BF8021006
:10161000D2B291428BF8002004BF00228BF8002048
:10162000182202FB03B32A6819799C68022974D036
:1016300003297ED0012918D1217CB1B9DA68626012
:101640001A69A2605A69E2609B69A361614B1B78C9
:10165000002BC0D06160BEE79C4200F093809946A9
:10166000DB69002BF8D1002323749BF800309BF832
:1016700001209A42C9D12B682FB9009A934202D116
:10168000B8F1000F43D0002B79D0D3F800A0524D11
:101690004E4BD5F804751C68DFF84C813E1B98F85A
:1016A000003026F07F4603369BB94FF48033C5F8EF
:1016B0004433C5F80433494B4FF400324FF001096D
:1016C000C3F880211A60C5F80090FFF7C1FE88F8C2
:1016D0000090B2452CBF5444A41924F07F44C5F8AF
:1016E0004045D5F80435DB1B23F07F43E41B03336F
:1016F00024F07F44A3420AD9D5F80435C5F8403513
:10170000FFF7A6FE354B4FF40032C3F80021314BF2
:1017100000221A7003B0BDE8F08F13469146A0E78F
:101720001174D2690123002AFAD1002B9DD02A60BE
:101730009BE700231946F6E7D31A23F07F43834241
:1017400034BFC31A0023236053E72168136899420A
:1017500013D8591A1160E26155E7091AD8691A4677
:1017600038B1034618688842F7D3401A1860184603
:1017700013462160E061DC6112E71346F2E7FFF7F0
:101780006FFEC4E74C450DD1D3692B6053B90F48A8
:1017900001920121CAF8081003600E4B1970FFF77F
:1017A00057FE019AE1692368C9F81C1011B1086855
:1017B00003440B602B689A4218BF012753E700BF10
:1017C000C40D0020C50D0020CC0D0020C80D002048
:1017D000BC0D0020B80D00200010014000E100E029
:1017E000AC0C0020FEFF7F00B90D002072B6024A4B
:1017F0001368013313607047D00D0020034A13684B
:10180000013B136003B962B6704700BFD00D0020E2
:10181000FFF7ECBFFFF7F2BF50E8002F0B4640E8A0
:10182000003C9CF0000FF7D11046704750E8002FA5
:1018300042EA010340E8003C9CF0000FF6D110465C
:10184000704750E8003F43EA010240E8002C9CF05A
:10185000000FF6D11046704750E8002F02EA01034E
:1018600040E8003C9CF0000FF6D11046704750E86D
:10187000003F03EA010240E8002C9CF0000FF6D183
:101880001046704750E8003F03EB010240E8002C8F
:101890009CF0000FF6D11046704750E8003FA3EBD4
:1018A000010240E8002C9CF0000FF6D11046704772
:1018B0000121FFF7BBBF0121FFF7C3BF0021FFF7E5
:1018C000CBBF0021FFF7D3BF10B590B1D0E9012302
:1018D00001689B1ADBB20A60013BDBB2FF2B026896
:1018E00002D10020107110BD11684C1C14600B70E7
:1018F000F2E70E20F7E738B504460020FFF788FF2F
:101900002268616813688B4215D9591E116013F85B
:10191000015CA28AE36802FB05352268A3681168AE
:101920005B1A1179DBB2994200D213710020FFF7E4
:1019300071FF284638BD0025F8E738B50546002078
:101940000C46FFF765FF2A681368591C1160E968A7
:10195000641AA98AB4FBF1F41C700020BDE8384079
:10196000FFF758BF10B5826804462AB14369016881
:10197000006998470023A36010BD0EB403B5039916
:1019800029B102AA04AB42F8043D00F073F802B09A
:101990005DF804EB03B070470A2938B504460D46DC
:1019A00002D10D21FFF7F8FFA3682268591CA1603E
:1019B000D554D4E901329A4204D32046BDE83840D8
:1019C000FFF7D0BF38BD00002DE9F84F9946DDE99B
:1019D0000A431746824688460A460126BA420FD273
:1019E0004E4538BF4E4613F0010B01D164B90024B7
:1019F0000125B9F1010F1AD909F1FF397D43F8E743
:101A0000B2FBF7F20136E9E79B070ED5B9F1000FFB
:101A10000CBF30252025A642EAD2013C294650467B
:101A2000FFF7BAFF002CF6D1E1E72025F3E7B8FB7A
:101A3000F5F39F42E2D9DFF83890B8FBF5F3504652
:101A400019F8031005FB1388FFF7A6FFB5FBF7F5A0
:101A5000002DF2D1BBF1000F02D00CB1A64201D390
:101A6000BDE8F88F20215046013CFFF795FFF4E7D1
:101A7000C66B03002DE9F74F054690460E46002938
:101A800000F03A8116F8011B002958D0252940F0B2
:101A9000D180002702E047F001071646324612F8CF
:101AA000013B2D2BF7D0302B04D02B2B05D147F049
:101AB0000407F2E747F00207EFE700242A2B06F1BC
:101AC00001021BD1D8F80030191DC8F800101B689E
:101AD00016461C4433782E2B1CD101364FF0000AD9
:101AE000314611F8012BA2F13000092814D80A233D
:101AF00003FB0A23A3F1300A0E46F1E712F8013C7A
:101B0000A3F130010929E5D80A2101FB0434303C56
:101B10001646D3E74FF0000A324612F8011B01F0D7
:101B2000FB0068281646F8D0692916D054D85829E1
:101B300070D00ED825297DD03378002BA2D12B7BF5
:101B4000002B00F0D980284603B0BDE8F04FFFF726
:101B500009BF632968D06429EED1D8F80020111D8F
:101B6000C8F80010D2F8009089EAE972A2EBE97295
:101B70004FF0010B092A61DCD34538BFD3462CB1A5
:101B8000B9F1000F01DB790700D5013CBA0702D596
:101B9000BAF1000F04D0FB0702D4002C54D100246A
:101BA000B9F1000F58DAC9F100092D212846FFF7D5
:101BB000F3FE07F00302022A05D1BAF1000F02D1A9
:101BC000002C4DD10024CDE9004753460A22494656
:101BD0002846FFF7F9FEAFE7732954D016D87029CD
:101BE000AAD1D8F800301A1DC8F8002030212846A4
:101BF0001C68FFF7D1FE78212846FFF7CDFE0022B2
:101C00000823CDE9003221461022E1E775292FD0C3
:101C1000782991D1D8F800100A1DC8F80020CDE924
:101C20000047534610222CE0D8F800301A1DC8F89F
:101C3000002019782846FFF7AFFE7DE70A230BF155
:101C4000010B92FBF3F295E7A345A9D22021284688
:101C5000013CFFF7A1FEA0E77807AAD52B21A5E755
:101C6000A345B0D230212846013CFFF795FEA7E7F7
:101C7000D8F80010CDE900470A1DC8F800205346E7
:101C80000A220968A4E7D8F800301A1DC8F8002015
:101C9000F907D3F8009012D54F46A7EB090B17F8B8
:101CA000011B41B9A345BFF447AF20212846013CA1
:101CB000FFF772FEF6E72846FFF76EFEEDE7B9F193
:101CC000000F17D0484633F0E7FF0746BC4200D963
:101CD00054B909F1FF3919F8011F00293FF42CAF5D
:101CE0002846FFF759FEF6E720212846013CFFF77A
:101CF00053FEEBE74F46E9E703B0BDE8F08F000085
:101D000007B50B46A0B9154B5B886BB1144B154852
:101D1000154AC01A0E23C0080093144B000414493E
:101D200040F00100FEF7E8FE0E2003B05DF804FB72
:101D30006BB90A4B5B88002BF6D0094B09480D4A5A
:101D4000C01AC0080E2300930004084BE7E70360A5
:101D50001B68114603B05DF804EB1847F804002037
:101D6000E08A0300308B0300836C0300D66B030012
:101D7000886C0300FF6C03002DE9F3419646B0B96F
:101D8000504B5B88002B00F095804F4B4F48504ADA
:101D9000C01AC0080E244F4B009400044E4940F076
:101DA0000100FEF7A9FE204602B0BDE8F0816AB945
:101DB000444B5B88002B7DD0434B4448474AC01AB4
:101DC000C0080E2400040094424BE7E7D0F800C09E
:101DD000BCF1000F0DD13B4B5B88002B6CD03A4B14
:101DE0003A483F4AC01AC008082400040094394BFE
:101DF000D4E76BB9334B5B88002B5FD0324B334851
:101E0000384AC01AC008092400040094314BC5E7C1
:101E10004768D7F80480B3FBF8F708FB17376FB1B2
:101E2000284B5B88002B49D0274B28482E4AC01AE4
:101E3000C008092400040094264BAFE78F070DD09B
:101E4000204B5B88002B3BD01F4B2048274AC01AF1
:101E5000C0081024000400941E4B9FE712F0030FEB
:101E60000CD0184B5B885BB3174B1848204AC01A3C
:101E7000C008102400040094164B8FE7C768B942CD
:101E80000BD34C1E05691C44AC4206D8DCF80C4050
:101E9000A44602B0BDE8F04160470A4B5B887BB1C5
:101EA000094B0A48134AC01AC008102400040094C1
:101EB000084B73E70E2476E7082474E7092472E7D9
:101EC000102470E7F8040020E08A0300308B030040
:101ED000836C0300E86B0300886C0300056D03004E
:101EE000F96C0300B86C03000B6D0300356D030043
:101EF0004D6D0300706D0300F7B5A0B9374B5B88DB
:101F0000002B63D0364B3748374AC01AC0080E241E
:101F1000364B00940004364940F00100FEF7ECFD1A
:101F2000204603B0F0BDD0F800C0BCF1000F0DD1C9
:101F30002A4B5B88002B4BD0294B2A482D4AC01ACC
:101F4000C008082400040094284BE4E76AB9234B36
:101F50005B88002B3ED0224B2248274AC01AC0087B
:101F6000092400040094214BD5E74768D7F800E026
:101F70000EF1FF370F420CD0184B5B8863B3184B40
:101F800018481E4AC01AC008102400040094174BB9
:101F9000C1E7C768B9420CD34C1E05690EFB024469
:101FA000AC4206D8DCF81040A44603B0BDE8F040CF
:101FB00060470A4B5B887BB1094B0A48104AC01A3C
:101FC000C008102400040094084BA4E70E24A7E7DF
:101FD0000824A5E70924A3E71024A1E7F8040020BA
:101FE000E08A0300308B0300836C0300FB6B03006B
:101FF000886C0300F96C0300B86C03000E6C0300DE
:10200000346C0300014B436000207047A46D030053
:102010000846704700207047024B1868003018BF10
:1020200001207047D40D002008B50248FFF749FC95
:10203000002008BDD40D002008B510461A4633F024
:10204000E0FA002008BD00002DE9F041804686B08E
:1020500013480E4615461F46FFF72AFC044630B1CA
:10206000112018E006EB043000F098FB0134A54283
:10207000F8D10B48FFF725FCD8F8083000246BB1E5
:10208000022268468DF80020CDE90146CDE90345DE
:1020900005979847204606B0BDE8F0811846FAE754
:1020A000D40D00202DE9F041804686B012480F463D
:1020B00016461D46FFF7FCFB0446D8B9AA08314670
:1020C000384600F083FB0C48FFF7FBFBD8F80830DC
:1020D00073B101228DF800200C9A05926846CDE973
:1020E0000147CDE903659847204606B0BDE8F08179
:1020F0001846FAE71120F8E7D40D00202DE9F04743
:10210000B0F806904479D2F800A09DF8208009FB31
:1021100004F4043C06460AEB0300A0420F4688BFC5
:10212000A4EB030A191DC2F800A0B1FBF9F509FBE5
:1021300015114DB9A9EB0104544528BF5446BAF115
:10214000000F04D1BDE8F0873668013DF1E70431A6
:102150007B1970182246B8F1000F0ED001461846C0
:10216000AAEB040A33F04DFAD145254436684C46B3
:102170004FF0000128BF5446E1E71946F0E7FFF7AA
:10218000A3BBF8B546790146721E0546002393426B
:102190002D6803D30024A64202D8F8BD0133F6E728
:1021A0000F682846FFF7C9FB01343946F3E72DE9EC
:1021B000F843CD1C868A0746FFF79DFB043E354455
:1021C0000446B5FBF6F5F0B14FF48073EDB28380B1
:1021D000C680013D076081464FF00008A84512D235
:1021E0003846FFF788FB064648B1637901336371CF
:1021F00008F10108C9F8000007608146EEE72046B3
:10220000FFF7BFFF34462046BDE8F88301210430C4
:10221000FFF738BB10B5012104460430FFF73DFB42
:1022200010F0FF0F04D12046BDE81040FFF7A9BF12
:1022300010BD1FB504AC44F8042D002200922246C4
:10224000FFF75CFF04B010BD1FB504AC44F8042DCB
:10225000012200922246FFF751FF04B010BD00009A
:1022600008B50020FFF7D4FAF1EE103A23F09F03EF
:10227000E1EE103ABFF35F8F054B4022C3F8842193
:102280000020FFF7C7FA20BF40BF20BF08BD00BF36
:1022900000E100E0026813685268934291BFD01ACF
:1022A00080680130801888BFC01A70472DE9F84354
:1022B00003681D685C68A54284BF836801331746C4
:1022C000884694BF641B5C1BC2684168BC420646DA
:1022D00005FB02110CD37A43404633F092F9B36800
:1022E0003D449D4288BF002533681D60BDE8F883EA
:1022F00004FB02F94A46404633F083F9F2687168FC
:102300003C1B624308EB090033F07BF933681C6027
:10231000ECE7036881681A685B688B4234BF01335D
:102320000023D31A584258417047F8B5044600209C
:102330000D46FFF76DFA2046FFF7EBFF10B1237C47
:10234000002B3DD12168A6684B684A68B24234BF71
:10235000013200224A6038B12168A0680A688242CE
:1023600034BF013200220A60E2686068511E07290A
:1023700020D8DFE801F004101F141F1F1F182A784F
:10238000C2542046FFF786FF23689A68824200D233
:102390009860002415E02A8820F81320F1E72A68C5
:1023A00040F82320EDE7D5E9006700EBC300C0E962
:1023B0000067E6E7294602FB030033F022F9E0E775
:1023C00004240020FFF726FA2046F8BD70B5054624
:1023D0000E46144682B10020FFF71AFA2846FFF78E
:1023E00059FFA0420AD3224631462846FFF75EFF36
:1023F00000240020FFF70EFA204670BD0524F8E700
:1024000010B504460020FFF703FA2046FFF742FF0D
:1024100004460020FFF7FEF9204610BD8268002325
:10242000936082681361826853618268D3608268B6
:10243000536082681360704738B5084C04F1080394
:102440000546002818BF1C4623682BB11A68226075
:102450005B6828469847F7E738BD00BFE00D0020CD
:1024600020B9054B01225A70FFF7E6BF012802D1BF
:10247000014A9070F8E77047D80D002038B5094C34
:1024800023786BB908486360A3602361E36000F0C0
:10249000BDF9054600F0C8F901232370284638BD70
:1024A0008525FBE7D80D00206124000038B5134CCA
:1024B000A378054603F0FF0073B115B16B680120E6
:1024C00098470020FFF7A4F9E3680133E360002098
:1024D000BDE83840FFF79EB9FFF79AF925B12269A8
:1024E00013463BB92A602561E368002BECD100F06C
:1024F000ADF9E9E79D42F7D01B68F2E7D80D00205F
:1025000038B5134C6378054603F0FF0073B115B17D
:102510006B68002098470020FFF77AF96368013361
:1025200063600020BDE83840FFF774B9FFF770F929
:1025300025B1A26813463BB92A60A5606368002BE9
:10254000ECD100F095F9E9E79D42F7D01B68F2E77E
:10255000D80D002038B5084C0020FFF759F9636802
:10256000013B6360656815B900F094F9657000205F
:10257000BDE83840FFF74EB9D80D002007B502A9D5
:1025800001F8010D0548FFF7D0FE0448FFF7C1FE32
:1025900008B100F035FB03B05DF804FBC88A030006
:1025A00038B50C4D2B7893B90B4B0C49002808BF5C
:1025B00018460388284620F8013F00F0E1FA044657
:1025C00018B900F00BFB01232B70204638BD852481
:1025D000FBE700BF3C0E0020DF6D03007D250000FF
:1025E00010B504460248FFF70BFF207010BD00BF76
:1025F000C88A030010B50A4601460448FFF7E6FE04
:10260000044600F0EBFA204610BD00BFC88A030064
:102610001FB503788DF800304368019383688DF807
:102620000830C3680393054A054B684653F82130C8
:1026300052F82110984705B05DF804FB400E0020C9
:10264000480E00201FB503788DF8003043680193D1
:1026500083688DF80830C3680393054A054B6846C4
:1026600053F8213052F82110984705B05DF804FB6B
:10267000400E0020480E0020F0B5194B0778DFF817
:1026800070E043F82720174B94460A6943F8272047
:102690004B7F0EF807300C4606460FCC89B06D46CE
:1026A0000FC594E80F0085E80F00337804971EF8F3
:1026B000033053B1BCF1000F0B4A694608BF00223A
:1026C000301D00F0E9FE09B0F0BDBCF1000F074A73
:1026D000694608BF002206F10C0000F0B5FCF2E7E5
:1026E000480E0020400E0020112600004526000064
:1026F000AC650020074A084B1360084A03F110013B
:102700001160074A03F120011160064A0120C2F856
:1027100004357047880E0020580E0020540E00200B
:10272000500E002000E0004010B5114B0446186820
:10273000884202D0102232F064FF0E4B0022C3F810
:10274000002101221A604FF08070D3F8002162B19D
:102750000022C3F80021084B1968A14203D01022BF
:10276000204632F04EFF012001E00138EDD110BDCE
:10277000540E002000E00040500E0020024B0146A5
:102780001022186832F03DBF880E0020024AD2F8AD
:102790000034002BFBD0704700E001400A4908B527
:1027A0000223C1F80435BFF36F8FBFF34F8FC1F819
:1027B0000805FFF7EBFF0023C1F80435BFF36F8F67
:1027C000BFF34F8F08BD00BF00E001400E4B10B5B6
:1027D0000124C3F80445BFF36F8FBFF34F8F01EBA4
:1027E0008204401AA14208D1074B0022C3F80425F5
:1027F000BFF36F8FBFF34F8F10BD431851F8042BF9
:102800001A60FFF7C3FFEDE700E00140054A1379C6
:102810002BB9012110601171537118467047852042
:10282000704700BF8C0E0020074B1A68D2075FBFAD
:10283000C02283F8002301221A604FF08043012256
:10284000C3F81825704700BF00E100E0074B0022E5
:102850001A6082B01B680193019B4FF080430222F3
:10286000C3F8042301229A6002B0704704010040BB
:10287000074B00221A6082B01B680193019B4FF046
:1028800080430122C3F804231A6002B0704700BFDE
:1028900000010040074B01221A604FF08042D2F83D
:1028A0000C3403F00113B3F1011FF8D0024B0022E6
:1028B0005A717047040000408C0E002007B5154B7C
:1028C0001A687AB100221A601B680093009B4FF0CF
:1028D00080430122C3F808230F4B587910B95A716D
:1028E0001B6898470D4B1A6882B100221A601B685A
:1028F0000193019B4FF080430222C3F80823064B4B
:102900001B68012003B05DF804EB184703B05DF8C5
:1029100004FB00BF000100408C0E002004010040B9
:1029200000F1804000F5C040002382B003600368DE
:102930000193019B02B0704703681F2B83BF03F014
:102940001F03036001484FF0A04070470003005090
:1029500007B502AB43F8040D1846FFF7EDFF019BE6
:1029600000EB8300D0F8003723F44033C0F8003781
:10297000D0F8003743EA0141C0F8001703B05DF812
:1029800004FB00002DE9F04F002489B0CDE902449A
:102990005F4A604E604D01211368A2F5C040012BD3
:1029A00080B206D1D6F804330B4202D0FFF7B8FF4D
:1029B0000C430432AA424FEA4101EDD1574B1B6848
:1029C000012B0ED14FF4BE70FFF7AAFF4FF0A043CA
:1029D00044F00044D3F810350293514BD3F810352E
:1029E000039314F0FF0F1AD04E4F002501263442F6
:1029F00010D0AB0003F1804303F5C043D3F81005BA
:102A0000D3F8101557F82530C0F30520C1F3014164
:102A100003B198470135082D4FEA4606E7D1002C4F
:102A200072DA04AE0023049373604FF0FF33CDE9F4
:102A300006333C4F4FF0010800252C467B1993F9D3
:102A40006020531C47D0D2B222F0C00908A84FEA38
:102A5000D90300EB030B02F007011BF8080C08FA7E
:102A600001F1084237D007EB0900920990F93000D4
:102A700057F820A0BAF1000F05D1032A2BD1F05C42
:102A80000843F05401E0032AF9D001A8CDF80490DE
:102A9000FFF752FF019B03F5E07350F823301BF85A
:102AA000180C0842C3F3014305D0022B13D1032AAB
:102AB0000BD1114604E0032B0DD1032A05D10221CD
:102AC0004846FFF745FF0134E4B2BAF1000F02D0E7
:102AD00011464846D0470135042DAFD1A4B14FF07F
:102AE000A0430299D3F8102503F540739142D3F81F
:102AF000103502D10399994206D002920393049AA9
:102B0000059B0692079397E709B0BDE8F08F00BFD9
:102B10000061004000600040206100407C61004096
:102B200000030050940E0020014B1B68184700BFA3
:102B3000000F002038B50A4B98420D460CD10020FA
:102B4000FEF766FE074B1C7914B901221D601A714D
:102B50000020FEF75FFE0CB9002038BD1120FCE715
:102B600000200040000F0020034B984201BF034BA0
:102B700000221A601A71704700200040000F0020E8
:102B800010B5124C2278FAB9114B1960037813F082
:102B9000010F104B1EBFD3F8042542F00102C3F809
:102BA0000425D3F8002222F00102C3F80022437862
:102BB000094A5B01DBB282F80D334FF40053136016
:102BC00001232370002010BD8520FCE70C0F00209E
:102BD000080F002000D0004000E100E0064B00227A
:102BE0001A6082B01B680193019B044B0122C3F859
:102BF00004231A6002B0704700D1004000D00040AA
:102C0000024A0123C2F808335360704700D00040E5
:102C1000074B00221A6082B01B680193019B054B91
:102C2000D3F80805044B1B68C0B202B0184700BFB8
:102C300000D1004000D00040080F0020F7B5067911
:102C4000324D0C2474432F193B7A002B5BD12A514F
:102C50004A687A609C461A4647790368D4B2A7420C
:102C600002F1010246D81B0BCC78294F5AB2002A38
:102C7000AEBF02F1604303F00F03264A4FEA44144B
:102C8000E4B2AABF03F56143D45483F80043036858
:102C90001B0B5CB26409012203F01F0302FA03F369
:102CA00047F8243007684B78D7F8044503F003034E
:102CB00024F003042343C7F8043507688B78D7F85A
:102CC000084503F0030324F003042343C7F8083541
:102CD00004680B78D4F8100503F00F0320F00F01FF
:102CE0000B43C4F810350C2303FB065500202A7251
:102CF00003B0F0BDA40004F5A07443F804C01B5950
:102D00000193019BA8E70820F2E700BF100F002005
:102D100000E100E014ED00E0036801221A6003798D
:102D2000034A0C2101FB032302221A72704700BFE1
:102D3000100F00200368044901221A6103790C2056
:102D400000FB03131A727047100F002038B5036898
:102D50001B0B5AB20121520903F01F0301FA03F3BE
:102D600020320C4941F8223003680025D3F80022B4
:102D7000C3F8005203684FF0FF320446C3F808233B
:102D8000FFF7D8FF2379044A0C2101FB03231D72AE
:102D900038BD00BF00E100E0100F00200379044AB5
:102DA0000C2101FB0323187A831E584258417047B7
:102DB000100F002073B54FF480348C4005688BB140
:102DC00001F150039B000026EE50EB580193019B4C
:102DD0000368C3F80443036801F5A87143F8212090
:102DE00002B070BDC5F80843F5E7F0B407689DF878
:102DF00010C0D7F8004240F201158D4024EA0504C6
:102E0000C7F800420568D5F800422343C5F80032F0
:102E1000F0BC6346FFF7CEBF2DE9F341104C114FD4
:102E2000114E00254FF48038236804F5C04080B26D
:102E30006BB1D7F8043308FA05F21A4207D0002321
:102E4000236023680193019BD6E90031984701353F
:102E5000062D04F10404E7D102B0BDE8F08100BF03
:102E600040A1014000A00140100F0020002343506A
:102E700082B043580193019B02B070470A4610B5D7
:102E80004FF48E71FFF7F2FF136A9168C95C136A01
:102E900001331362C0F81C1510BD10B58B690A46CA
:102EA0004FF4847123B9FFF7E1FFD0F8183510BD56
:102EB000FFF7DCFF536AD168D0F81805C854536A8D
:102EC00001335362F3E700001FB501238DF8003092
:102ED000044BCDE90110D3E900126846904705B0D4
:102EE0005DF804FB1C0F002030B54D4AD2F80433C6
:102EF00013F4007F85B015464FD0D2F82431002B53
:102F00004BD04FF492711046FFF7B0FF4FF40173AE
:102F1000C2F80833434B93F8291009B901215160D5
:102F20003F4902228DF80020D1F88024C1F8802486
:102F300003929A690292DA6801920022C3E906229A
:102F40006846D3E9001290473548D0F81C315BB190
:102F500034490A6A4B699A420A464CD291F82830A1
:102F6000002B48D1FFF78AFF2D4AD2F8443193B1A4
:102F70004FF4A2711046FFF779FF2A4B93F82910FE
:102F800009B1012111609A692AB100229A61586A37
:102F9000D968FFF799FF05B030BDD5F804335B075A
:102FA000D2D5D5F80831002BCED01E4C1C48214676
:102FB000FFF773FF636AA2699A422346C4D1E269AC
:102FC00052B12369E168E3600023606AA261E361B2
:102FD0006362FFF779FFB7E794F829200AB9012265
:102FE0006A600F4A4FF40171C2F8081300229A6117
:102FF000586AD968EDE74FF48E710948FFF736FF3C
:1030000051690029B0D00023029191688DF80030F9
:10301000019153616846D2E900139847A4E700BFC5
:10302000002000401C0F00201F2886BF00F01F005A
:10303000044B4FF0A04300F5E070022243F820203B
:10304000704700BF000300502DE9F8436C4F06792C
:1030500091462C2202FB0672054692F82A200C4665
:10306000002A40F0C68067490068FFF763FD80468C
:10307000002840F0C18023685A1C19D01F2B4FF044
:1030800001028ABF60494FF0A04103F01F0302FA1A
:1030900003F3C1F8083523681F2B86BF03F01F0315
:1030A000594A4FF0A04203F5E073032142F8231080
:1030B00061684B1C0BD01F2986BF01F01F01524BCA
:1030C0004FF0A04301F5E071002243F821202B6866
:1030D000A269C3F82425217D637D2A680B43C2F8C9
:1030E0006C35D4E900122B68C3F81425C3F80C150D
:1030F000237D012B32D1A168481C0BD01F2986BF2C
:1031000001F01F01404B4FF0A04301F5E071002298
:1031100043F82120E3685A1C19D01F2B4FF00102FD
:103120008ABF39494FF0A04103F01F0302FA03F3AD
:10313000C1F80835E3681F2B86BF03F01F03324A2E
:103140004FF0A04203F5E073032142F82310D4E9C5
:1031500002122B68C3F80825C3F810152C237343FB
:10316000FA18C2F804902269FA50B9F1000F2DD074
:103170004FF48E712868227FFFF778FE4FF4A2711A
:103180002868FFF773FE2B682049C3F804132968E9
:10319000090B4BB2002BAEBF03F1604301F00F01EE
:1031A0001B4B4FEA4212D2B2AABF03F561435A54F5
:1031B00083F800232B681B0B5AB2012103F01F0375
:1031C00001FA03F35209134941F822302B68042213
:1031D000C3F800252C2303FB06730022C3E9062253
:1031E00083F829205A61012283F82A204046BDE84D
:1031F000F8834FF00808F9E74FF01108F6E700BF31
:103200001C0F0020E92E0000000300508000020087
:1032100014ED00E000E100E02DE9F04103680479DD
:10322000274D0022C3F800252C2303FB045301463D
:103230005B6883B10368234AC3F8082303681B0B48
:103240005AB20120520903F01F0300FA03F320329F
:103250001D4840F822300B684FF0FF32D3F80C05C0
:10326000D3F81485D3F80865D3F81075C3F814257E
:10327000C3F80C250B689042C3F80825C3F8102545
:1032800001D0FFF7D1FEB8F1FF3F02D04046FFF773
:10329000CBFE7A1C02D03846FFF7C6FE731C02D064
:1032A0003046FFF7C1FE0868FFF75EFC2C2303FBE6
:1032B0000454002384F82A306360BDE8F08100BF25
:1032C0001C0F00208402020000E100E02DE9F84319
:1032D000224B07794FF02C0909FB07340646656934
:1032E0009846002D35D16261A160256284F828508E
:1032F0004FF48E710068FFF7B9FD336801229A60C0
:1033000021463068FFF7BAFD6368A1461BBB3568EC
:10331000226A63699A4211D33368D3F81C21002AC8
:10332000FBD00122DA6000202C2303FB0787002357
:103330007B61BDE8F88394F8283043B9D5F81C3197
:10334000002BF8D049462846FFF798FDE0E70F200C
:10335000EAE71120EDE72846EBE700BF1C0F00204D
:103360000023435082B043580193019B02B0704741
:103370001FB501238DF80030044BCDE90110D3E9CE
:1033800000126846904705B05DF804FB480F002026
:103390007FB5374AD2F82461002E48D010464FF44A
:1033A0009271FFF7DDFF02238DF80030D2F88034F0
:1033B000C2F880340393D2F83C3502932D4BDA687F
:1033C00001920022C3E906226846D3E90012904721
:1033D000274AD2F844317BB14FF4A2711046FFF76F
:1033E000BFFF244B996939B10021C3E90611D9689F
:1033F000D2F83C05FFF7BCFF1D4AD2F82031A3B13B
:103400004FF490711046FFF7ABFF1A4B596961B149
:10341000D2F84C150291002299688DF80020019194
:103420005A616846D3E90012904704B070BDD2F8E3
:103430001031002BCCD04FF488711046FFF790FF6D
:103440000C4BD2F83C0599698842C1D1DC69D96836
:1034500064B1D2F8005225F02005C2F800521A6972
:103460009C61DA60DE61FFF783FFB1E79C61FAE7F8
:1034700000200040480F00201F2886BF00F01F00DA
:10348000044B4FF0A04300F5E070022243F82020E7
:10349000704700BF000300502DE9F843704F0679D4
:1034A0009146242202FB0672054692F820200C4623
:1034B000002A40F0CE806B490068FFF73BFB804656
:1034C000002840F0C98023685A1C19D01F2B4FF0E8
:1034D00001028ABF64494FF0A04103F01F0302FAC2
:1034E00003F3C1F8083523681F2B86BF03F01F03C1
:1034F0005D4A4FF0A04203F5E073032142F8231028
:1035000061684B1C0BD01F2986BF01F01F01564B71
:103510004FF0A04301F5E071002243F821202B6811
:10352000A269C3F82425217D637D2A680B43C2F874
:103530006C35D4E900212B68C3F80C25C3F81415A9
:10354000237D012B32D1A168481C0BD01F2986BFD7
:1035500001F01F01444B4FF0A04301F5E071002240
:1035600043F82120E3685A1C19D01F2B4FF00102A9
:103570008ABF3D494FF0A04103F01F0302FA03F355
:10358000C1F80835E3681F2B86BF03F01F03364AD6
:103590004FF0A04203F5E073032142F82310D4E971
:1035A00002122B68C3F80825C3F8101524237343AF
:1035B000FA18C2F804902269FA50B9F1000F37D016
:1035C0004FF488712868227FFFF7CAFE4FF490718C
:1035D0002868FFF7C5FE4FF492712868FFF7C0FE18
:1035E0004FF4A2712868FFF7BBFE2B681F49C3F890
:1035F00004132968090B4BB2002BAEBF03F16043E3
:1036000001F00F011A4B4FEA4212D2B2AABF03F5E2
:1036100061435A5483F800232B681B0B5AB20121D3
:1036200003F01F0301FA03F35209124941F8223053
:103630002B680822C3F80025242303FB067300220D
:10364000C3E906225A61012283F820204046BDE8E2
:10365000F8834FF00808F9E74FF01108F6E700BFCC
:10366000480F0020913300000003005010030200B7
:1036700014ED00E000E100E02DE9F0410368047979
:10368000274D0022C3F80025242303FB04530146E1
:103690005B6883B10368234AC3F8082303681B0BE4
:1036A0005AB20120520903F01F0300FA03F320323B
:1036B0001D4840F822300B684FF0FF32D3F80C055C
:1036C000D3F81485D3F80865D3F81075C3F80C2522
:1036D000C3F814250B689042C3F80825C3F81025D9
:1036E00001D0FFF7C9FEB8F1FF3F02D04046FFF717
:1036F000C3FE7A1C02D03846FFF7BEFE731C02D010
:103700003046FFF7B9FE0868FFF72EFA242303FBC3
:103710000454002384F820306360BDE8F08100BFCA
:10372000480F00201003020000E100E001F06043B8
:10373000B3F1005F2DE9F041064634D11D4B077906
:10374000242505FB073598466C6974BB6A61A9603E
:1037500000684FF49071FFF703FE4FF4AC713068CE
:10376000FFF7FEFD33686A69A968C3F84415C3F81A
:103770004825336801229A606B68C3B93268D2F871
:103780002011D2F8583149B9002BF8D00F2024234A
:1037900003FB078700237B61BDE8F081002B14BF8A
:1037A0000F200020F3E71020F6E71120F4E7204671
:1037B000F2E700BF480F002010B5C02288B040F2E9
:1037C000AC410AF033FA00247F231C218DF803302A
:1037D0008DF802400AF050F91C22014601A831F090
:1037E00010FF0A4BBDF805001880094B9DF80F200B
:1037F0001A70084B02221A700DF102010DF103023A
:1038000017F03AFD204608B010BD00BFB265002099
:10381000B0650020B465002008B59A2240F2AC41A2
:103820000AF004FA18210AF027F90023436003780C
:1038300093B98368062B12D1094B5B88022B0ED9F2
:10384000084B09480949C01AC008000440F00300A9
:10385000BDE80840FDF74CB94FF0FF33436008BDA9
:10386000EC040020E08A0300188B0300526E030072
:1038700010B54FF400410020FCF7FAFE08B1FDF747
:10388000D9FD2D4CFCF714FE6388022B09D92B4877
:103890002B4B2C49C01AC008000440F00300FDF770
:1038A00027F9294A294B1178197000231370284AE7
:1038B00013700AF093FB0AF093FB26480EF016FEF5
:1038C0004FF400100EF03EFE01200EF017FE012016
:1038D0000EF03CFE204800F053FA05200FF01EF8D1
:1038E0001E4BC0F803300FF045FD1D4BC0F8A03053
:1038F0000EF032FE638868B1022B09D90F48104BD5
:103900001849C01AC008000440F00300FDF7F0F8A1
:10391000002010BD022B09D90848094B1249C01AD2
:10392000C008000440F00300FDF7E2F80EF016FEB8
:10393000FCF752FFFAE700BFEC040020188B0300ED
:10394000E08A03001D6E0300A9010020A8010020E9
:10395000AC0100204E00002031010020B9370000EA
:10396000193800002B6E03003D6E030038B50021AE
:10397000044615F07DF9E322054640F2AC412046AD
:103980000AF054F9B0F904302BB9052D03D3062DF4
:103990000CD90A2D0ED08CB12046FC2240F2AC414D
:1039A0000AF044F9BDE8384009F008BF022000F0F1
:1039B000CDFCF0E7052000F08DFFECE738BD0000FE
:1039C000054B1B68082B01BF044B1868B0FA80F048
:1039D000400918BF0020704730010010340100106A
:1039E00008B54FF080430022C3F80C21C3F8102122
:1039F000C3F838254FF0805203F54043D2F8041441
:103A0000C3F82015D2F80814C3F82415D2F80C1402
:103A1000C3F82815D2F81014C3F82C15D2F81414D2
:103A2000C3F83015D2F81814C3F83415D2F81C14A2
:103A3000C3F84015D2F82014C3F84415D2F8241462
:103A4000C3F84815D2F82814C3F84C15D2F82C1432
:103A5000C3F85015D2F83014C3F85415D2F8341402
:103A6000C3F86015D2F83814C3F86415D2F83C14C2
:103A7000C3F86815D2F84014C3F86C15D2F8442482
:103A8000C3F87025FFF79CFF10B1384B384A1A6015
:103A9000FFF796FF18B1374BFB22C3F81825FFF745
:103AA0008FFF48B13449354B0A681B6822F00F027A
:103AB00003F00F0313430B60FFF782FF18B1304B85
:103AC0004FF400721A604FF08043D3F80024D207FD
:103AD00044BF6FF00102C3F800242A4AD2F88830AC
:103AE00043F47003C2F88830BFF34F8FBFF36F8F7A
:103AF0004FF01023D3F80022002A03DBD3F804325E
:103B0000002B2FDA204B0122C3F80425D3F8002420
:103B1000002AFBD04FF010221221C2F80012D3F875
:103B20000024002AFBD04FF010231222C3F80422F5
:103B3000154B1A46D3F800140029FBD00021C3F816
:103B40000415D2F80034002BFBD0BFF34F8F0D4982
:103B50000E4BCA6802F4E0621343CB60BFF34F8F91
:103B600000BFFDE70A4B0B4A1A6008BD8C560040A7
:103B70004881030000F00040E40E004058020010AD
:103B80004096024000ED00E000E001400400FA052C
:103B9000A40100200090D00370B5194CB4F84A5726
:103BA00084F8563725F00705054305F0E70545F489
:103BB0008045A4F84A57DD01022845EA810134BF57
:103BC0000226002641EAC2013143342284F84C1710
:103BD00084F84D270021122284F84E2788424FF0A6
:103BE0006C0284F84F2742F6412218BF4FF4285246
:103BF000A4F85017A4F85227A4F8541770BD00BFBA
:103C0000E865002030B50A4DB5F8574724F00F0499
:103C1000204320F0F00040EA011020F4706040EAF8
:103C20000220C0F30B0040EA0330A5F8570730BD6F
:103C3000E865002070B583798B4205460C46164630
:103C400004D8A9214FF449600AF022F8043425F879
:103C5000146070BD70B5C3798B4205460C4616469C
:103C600004D8B7214FF449600AF012F8AB791C442C
:103C7000043425F8146070BD70B51C4D1C4E95F8C9
:103C80005E270023082102F0F00285F85F1763F336
:103C90000712092185F85937A5F85A37A5F85C3776
:103CA00085F8601785F85E2785F89C371C4605F275
:103CB000597536F81420E1B228460134FFF7BAFFEF
:103CC000082CF6D10B4E0C4D0024325DE1B2284693
:103CD0000134FFF7BFFF092CF7D10C230322072182
:103CE0000020BDE87040FFF78DBF00BFE8650020F1
:103CF0005A6E03006A6E0300416D0020031C4FF0F2
:103D0000010218BF01231146FFF746BF08B50A4B51
:103D100093F8D521003218BF012211460123022059
:103D2000FFF73AFF01220C2311460020FFF76AFF3C
:103D3000BDE80840FFF7A0BFE865002007B50F4BBE
:103D400093F89C27052A0AD8511C83F89C1703EB8B
:103D50008203C3F88407002003B05DF804FB04234A
:103D6000019200934FF0FF3040F219134FF4496273
:103D700001210EF0D5FA6FF01C00EDE7E865002098
:103D80002DE9F7430EF0A6FC0FF0F4FA83681B78D8
:103D90000193042300934FF4496240F22713012159
:103DA0004FF0FF300EF0BCFA00260FF0E3FA836804
:103DB0001B78F4B2A3420CD80EF0B0FC00286CD1F2
:103DC00040F23F114FF4496003B0BDE8F04309F001
:103DD0005FBF0FF0CFFA8368D3F8013053F8243077
:103DE000D3F81500FFF7AAFF0FF0C4FAD0F8B030EF
:103DF000A50063B10FF0BEFAD0F8B0700FF0BAFAB8
:103E00008368D3F8013053F824301878B847002776
:103E10000FF0B0FA8368D3F801305B591B7CFCB219
:103E2000A34201D80136C0E70FF0A4FA8368D3F8A3
:103E300001305B59D3F81130C4EB04142344D3F898
:103E40000B305BB10FF096FA8368D3F801305B5901
:103E5000D3F811302344D3F80B3098470FF08AFA87
:103E60008368D3F801305B5993F800800FF082FA31
:103E70008368D3F801305B59B3F801900FF07AFAF8
:103E80008368D3F801305B59D3F8112049462244A6
:103E9000404613F047F80137BAE703B0BDE8F083B6
:103EA00013B5224A92F8D543014604F00E000228C9
:103EB000134614D1D2F8BC0390B123466FF34303E9
:103EC00082F8D533012382F8B733C2F8C403002344
:103ED000174800931A460DF0F3FD02B010BD88B9E3
:103EE000D3F8C02372B1012283F8B72393F8D52306
:103EF000032060F3430283F8D523D3F8C023C3F82B
:103F0000C423E4E7052283F8B72393F8D5230120DF
:103F100060F3430283F8D52393F8CD23824083F8DE
:103F2000CD23002300931A460248D4E7E865002019
:103F30005D800100813F000013B540F219224FF46B
:103F4000D571044609F072FE052109F095FD0A4B72
:103F5000D3F8C423026093F8CC23027193F89D2711
:103F600083F8A027002300931A46214603480DF04A
:103F7000A7FD02B010BD00BFE86500200D6700007E
:103F80002DE9F341784E96F8CD3305463446DBB93A
:103F900096F8B623402A13D096F8D523C6F8C43332
:103FA000012161F3430286F8B71301466F4886F892
:103FB000D52300931A460DF083FD02B0BDE8F081D1
:103FC00086F8CD2300938AE0402B05D100230146DB
:103FD00000931A466648EEE7102B20D1202386F87E
:103FE000CD3396F8B733012B08D196F8DB33002296
:103FF00062F3000386F8B72386F8DB3394F8D7130F
:104000000D29DAD094F8B72300235242284614F041
:1040100017FB002300931A4629465648CBE796F82B
:10402000B6231340DA0705D50023014600931A464C
:104030005148C0E79F0767D519F0E0FD0746002803
:1040400056D196F8B783B8F1030F0DD196F8B8336F
:10405000D80727D50A233946284686F8D83102B032
:10406000BDE8F04104F05ABCB8F10A0F1AD1102390
:10407000DB224FF4D571284686F8CD3309F0D6FD02
:10408000414609F0F9FC08223946044631F0DDFAD0
:1040900028462772677286F8D88102B0BDE8F041E1
:1040A00006F004BE94F8B81311F001010AD094F898
:1040B000CD3313F0020385D0002300931A4629461E
:1040C0002E4878E794F8DB2312F002030BD010237C
:1040D00084F8CD33032384F8B73300910B461A4696
:1040E0002946274867E700931A462946254862E78C
:1040F0004FF486724FF4D571284609F097FD02B04F
:10410000BDE8F04109F05ABB59071AD596F8B83303
:10411000DA0716D496F8E030012B09D094F82D3345
:10412000DB070ED5002300931A462946164842E7BE
:104130000822164906F54F7031F054FA0028EDD1E7
:10414000F0E794F8CD331F2B04D85B0084F8CD330F
:10415000002337E7202384F8CD33002D3FF42DAF23
:1041600040F22F12C6E700BFE86500202945000095
:1041700059560000F99F010069570000894200006C
:10418000813F000091410000A13E000093750300B3
:1041900037B53A4C94F8D53303F00E0102290546A1
:1041A00038D1D4F8BC23AAB394F82D2312F001021D
:1041B00030D162F3430384F8D533012384F8B73355
:1041C00016F034F810B394F80538012B1ED1D4F84A
:1041D000C423DAB994F8D62103FA02F2C4F8C4234E
:1041E00094F8D52363F3430284F8D523D4F8C43379
:1041F0001BB9D4F8BC33C4F8C4330023204800935F
:104200001A4629460DF05CFC03B030BD0023C4F80B
:10421000C433EBE794F82D33DB0719D479B9D4F81C
:10422000C033ABB194F8D533032262F3430384F86F
:10423000D533012384F8B733D4F8C033DBE7022940
:1042400006D1D4F8C0331BB1D4F8BC33002BE9D06D
:10425000032384F8B73394F8D5330A48012262F374
:10426000430384F8D53394F8CD33934084F8CD33A9
:10427000002300931A462946C4E700BFE8650020E2
:10428000393F0000813F000038B540F28A224FF4E8
:10429000D571054609F0CAFC042109F0EDFB0021A7
:1042A0000446042231F0D1F96FF0030323704FF07C
:1042B000FF336370B423A3700123E37028460249DF
:1042C000BDE8384018F04AB8CD420000F7B54FF4C9
:1042D00027724FF4D571044609F0A8FCB0F90460C8
:1042E000184D5EBB95F8E030012B18D840F2A6229D
:1042F0004FF4D571204609F099FC042109F0BCFB6C
:1043000004220746314631F0A0F9B423BB70B5F85A
:10431000C8313B8020460C4918F020F8344695F807
:10432000CD335B0085F8CD3334B1002300931A46BA
:10433000214605480DF0C4FB03B0F0BD092385F804
:10434000B733ECE7E8650020813F000007B5144A69
:1043500092F8CD3313F0DF0320D182F8CD3392F8F9
:10436000B83382F8B60313F0010309D100931A465B
:1043700019460C480DF0A4FB012003B05DF804FBC6
:10438000022807D1012382F8B7330A2382F8CD032C
:1043900082F8D733044809F00CFAEDE70020ECE787
:1043A000E8650020A58B0100813F000008B50B4B9C
:1043B00093F82D23520706D41EF0ACFF437843F048
:1043C0000103437008BD93F80D3D9B07F4D41EF024
:1043D000A1FF437823F00103F3E700BFE865002065
:1043E00070B54C4C86B0FFF7E1FF94F8DB33022147
:1043F0006FF3820304F54F7084F8DB3319F0ECFFA0
:10440000002867D094F8DB3343F0040384F8DB33EF
:1044100094F8E030032B07D194F82D33DB074CBF21
:104420000023012384F8E03008223B493B4831F067
:10443000D9F8002864D094F8D454C5F3800594F8D2
:104440006833142B5ED8EDB26DB10822344935487B
:1044500031F0C8F894F8D533B0FA80F0400960F331
:10446000000384F8D53394F8DB3365F3410384F813
:10447000DB332DB11EF04EFF437823F00103437070
:1044800094F8D5332449254894F8E06043F080033C
:10449000082284F8D53331F0A5F894F8DB3302957F
:1044A000C3F38003059394F8D43401960030C3F32A
:1044B000800318BF012004931423039000934FF44A
:1044C000D5724FF4D07301214FF0FF300DF028FF6B
:1044D00006B070BD082204F5E67104F54F7031F0A6
:1044E00081F800288ED094F8D533DA078AD40822D0
:1044F0000B4904F54F7031F075F8002882D087E73A
:1045000005469CE7002D9ED094F8DB53C5F380054B
:1045100099E700BFE86500209B750300C066002096
:104520009375030024690020F7B50546FFF758FF8F
:104530005D4B93F8DB6316F0020F1C4653D093F8E3
:10454000B823D70714D593F8B623042A10D10B2229
:1045500083F8D723102283F8CD23002D00F08E801E
:10456000002300931A46294650480DF0A9FA85E029
:1045700094F8E070A7B994F8B8334D4843F00103BC
:1045800084F8B8333A4600973B4629460DF098FA2E
:104590000025062384F8D733012384F8CD33DCE7E4
:1045A000012F0ED116F001060BD194F8B833414813
:1045B00043F0010384F8B833324600963346294667
:1045C000E4E794F8B633012BE3D04FF4E9724FF4EB
:1045D000D571284609F02AFB0123D4F83023364947
:1045E00014F03CFCD4E70822344903F1D80030F041
:1045F000F9FF10BB94F8D43458071ED494F8DB3379
:10460000590705D494F8B633042B39D10B23C1E7ED
:10461000082204F5E67104F54F7030F0E3FF00283E
:10462000F0D094F8D533DA07ECD40822244904F505
:104630004F7030F0D7FF0028E4D008221F491E48F1
:1046400030F0D0FFF0B194F86833142B03D994F80C
:10465000DB335B0716D54FF4FF724FF4D571284654
:1046600009F0E4FA0023D4F83023134914F0F6FBE0
:10467000062384F8D733012384F8CD3303B0F0BD8B
:10468000052387E7002400944FF402734FF4D5729A
:1046900001214FF0FF300DF043FE2146284603B0C4
:1046A000BDE8F04004F03AB9E8650020813F000021
:1046B000A16400003D7F0100C06600209B750300DF
:1046C0009375030038B502211B481C4C19F084FE79
:1046D000B0B1012508221A491A4830F083FF18B1F9
:1046E00094F8D404C0F3800094F86833142B1ED8D7
:1046F00094F8DB33C0B260F3410384F8DB3338BD98
:1047000004F5E671082201F5B87030F06BFF00285F
:10471000DFD094F8D533DB07DBD408220A4904F54F
:104720004F7030F05FFFB0FA80F56D09D2E70028D6
:1047300018BF2846DCE700BF24690020E865002098
:104740009B750300C06600209375030007B5164BE8
:1047500093F8CD1320291A461AD0082918D093F8B7
:10476000B7130A2905D1114803B05DF804EB09F02D
:1047700020B803290CD1012283F8B723002300932A
:104780001A4619460A480DF09BF903B05DF804FB80
:10479000202382F8CD33032382F8B73303B05DF8CA
:1047A00004EB14F08FBA00BFE8650020813F0000E1
:1047B000A58B0100F7B5A8220E4640F25B310546F5
:1047C00009F034FA07460EF0D5FD00240F4B80F8AF
:1047D000F440202283F8CD2393F8B723121B18BF8F
:1047E00001220D2183F8D71352422346284613F0A5
:1047F00027FF40B1BC80234606702246009429461C
:1048000003480DF05DF903B0F0BD00BFE86500207E
:10481000F99F010037B500220D460DF1070311463F
:1048200008F02CFC30B904460EF0A4FD90F81F31BE
:104830009C4203D36FF01B0003B030BD0EF09AFD15
:10484000C4EBC40318449DF8073090F803219A4242
:1048500002D12C700020EFE70134E5E710B50EF02F
:1048600089FDD0F8F5300D4C43B984F8B7330122F7
:1048700000210B48BDE8104008F02CBF0EF07AFD77
:10488000D0F8F5308C2B0BBF0723062384F8B73301
:1048900084F8B7330CBF03230223E8E7E865002060
:1048A000B547000008B50022FF2108480DF052FB73
:1048B0000022FF2106480DF04DFB0EF05BFD352276
:1048C0000021F430BDE8084030F0BFBE5D48000074
:1048D0007949000070B506460EF020F840B96FF037
:1048E000090070BD6FF0220070BD4FF0FF3070BD49
:1048F000144D95F8B833DB07F4D5D5F8C823124B1F
:104900001248534300214FF47052B3FBF2F20DF002
:1049100051F9B5F8C813304610F076FA044600286D
:10492000E3D1082385F8CD33012385F8B7330EF0A2
:1049300021FD052380F8F4300EF01CFD80F8206185
:10494000204670BDE865002040420F007949000014
:10495000002208B5114607480DF0FCFA0EF00AFDDA
:1049600090F8200110F082FC0EF004FD002380F886
:10497000F43008BD7949000013B5044628B90B4846
:1049800002B0BDE8104008F014BFFFF7E1FF0023BC
:104990001A460C21204613F053FE002300931A46BA
:1049A000214603480DF08CF802B010BD7949000093
:1049B000F99F010070B505460E460EF0DBFCD0F8FD
:1049C00021310BB9002070BD0EF0D4FCD0F821319C
:1049D0001C7C0EF0CFFCD0F82131D3F8111000224E
:1049E00013B2A342EEDAC3EB03130B441888A842B8
:1049F00002D11B7AB34201D10132F1E7012070BD2F
:104A00002DE9F04F91B040F20512069140F25B3172
:104A1000054609F00BF99DF8183008934FF484729D
:104A200040F25B318246184609F000F9014640F237
:104A30005B3009F01EF9C37A0993037B0B93804620
:104A40000EF098FCB8F80610D0F821010EF00CF822
:104A5000B8F802300DF13701002800F0F280184656
:104A6000FFF7D8FE074600284DD000263346099AA6
:104A70000B990A44934240F0F8800EF07BFC90F8CA
:104A8000263183B3874FB7F8B4234FF6FF739A42AA
:104A900029D0002531780EA808F07AF82A4601219D
:104AA0002B46009550460EF03FFCB7F8B433037028
:104AB000B7F8B43385701B0A4370B37933440446A6
:104AC0005F780EF057FC042303934FF48273049530
:104AD000029390F820310193009702230EAAE11C63
:104AE00050460EF0D1FAB3790133B371002300932D
:104AF0001A4608996C480CF0E3FF002D40F0CE8078
:104B000011B0BDE8F08F0EF035FC9DF83730072668
:104B100006FB030606F20316002EA6D0C3EBC30362
:104B20000797C4180B9A0999BDF91C300A4493429F
:104B30009DDA5A0008F10D090A92099A39F8130012
:104B40009342ACBF02210121FFF734FF00286BD054
:104B50001621504608F090FF07460EF00BFCD0F8E7
:104B6000FD30ABB194F803110EA807F0CFFF0EF0A3
:104B700001FC94F809210A9BD0F8FDB039F8033004
:104B800022440EA992F804210220D84701284BD1D3
:104B900016220021384630F058FD08224349384695
:104BA00030F02FFD0EF0E6FB90F820313B720A9BAF
:104BB00039F803307B813B4BB3F8B4134FF6FF72E7
:104BC000914235D194F8031107F10D0007F09EFFD3
:104BD00003233B7394F809312344284693F80431A6
:104BE0007B7522F067FA0EF0C5FBBAF90470C0F8C5
:104BF000F5704FF0010B17BB0EF0BCFB80F826B12F
:104C000094F803110EA807F081FF0EF0B3FB94F89F
:104C100009210A9BD0F8FDB039F8033022440EA9CF
:104C200092F804213846D847079B0133079379E768
:104C300001223A73B3F8B433A7F80D30CAE75F46E0
:104C4000DEE71846FFF7E6FD044670B90EF092FB6A
:104C50009DF83720C2EBC202104490F809310133AD
:104C600080F809310094234642E745B14FF4D772EA
:104C700040F25B31284608F0D9FF08F09FFD069B03
:104C8000002B3FF43DAF4FF4D97240F25B319DF8F9
:104C9000180008F0CBFF08F091FD31E700230693E0
:104CA000E4E700BFE8650020714D0000B467002014
:104CB00073B50E4605464FF47E7240F25B313046C6
:104CC00008F0B4FF8C2D8580134C03D1072384F8A2
:104CD000B73302E0F5B984F8B7530EF04BFB90F808
:104CE000F430052B06D1002394F8B7230C2130466D
:104CF00013F0A6FC0EF03EFB0023202280F8F430D7
:104D0000314684F8CD2300931A4604480CF0D8FEAF
:104D100002B070BD0623DAE7E8650020F99F0100C4
:104D200070B54FF4F27240F25B31044608F07EFF3A
:104D3000014640F25B3008F09CFF05460EF01AFB7E
:104D400090F8F430042B06D06FF007002146BDE840
:104D50007040FFF7ADBF68780028F7D123460146C1
:104D600001220248BDE8704008F0B4BC014A0000CE
:104D70002DE9F74340F2062240F25B31064608F087
:104D800055FF0146054640F25B3008F072FF0DF119
:104D900005014088FFF73EFD8046A8BB0EF0EAFA09
:104DA0009DF80530072707FB030202F203125AB3EE
:104DB000C3EBC303C41894F8093194F808219A424C
:104DC00025D923440321284693F8049108F0AAFD2D
:104DD00003224146074630F038FC94F803110DF1E8
:104DE000060007F0D5FEBDF806303B8087F802903C
:104DF000284608F061FC174916F0EEFBFF2803D1A6
:104E000031468A20FFF754FF03B0BDE8F083FF234B
:104E100084F803310EF0AEFA90F81F31013B80F8B0
:104E20001F310EF0A7FA90F81F414CB90EF0A2FA0C
:104E3000D0F8F5308C2B08BF3C46074B83F8B743BE
:104E400040F23E2240F25B31304608F0EFFE08F0BF
:104E5000B5FCD9E7214D0000E86500202DE9F04FB1
:104E60004FF42B7285B040F25B31814608F0DEFED4
:104E7000014640F25B3008F0FCFE04460EF07AFA80
:104E800090F8F470042F51D06FF007004946FFF7F7
:104E90000FFF40E00EF06EFA9DF80DA04FEACA0534
:104EA000A5EB0A060644804696F803110DF10E00A4
:104EB00007F06EFE237986F80831042B86F809B1D5
:104EC00017D9019340F25B3240F2C92301214FF020
:104ED000FF3000970DF024FA0197009740F2CB23A2
:104EE00040F25B3201214FF0FF300DF019FA86F8E5
:104EF0000871A5EB0A050434CAEBCA010023454436
:104F000095F80821934209D3002300931A46494695
:104F10000B480CF0D5FD05B0BDE8F08F5A1842449F
:104F200014F8010F82F804010133E9E70DF10D01D6
:104F30006088FFF76FFC83460028ABD00020A5E710
:104F4000714D00002DE9F04F4FF439728FB040F2EF
:104F50005B31044608F06AFE06460EF00BFA90F844
:104F6000F430042B40F0DB800EF004FAD0F8F5307A
:104F70001C330AD10EF0FEF9002380F8F53080F8DA
:104F8000F63080F8F73080F8F8301C21304608F011
:104F900073FD1C2201460DEB020030F032FB05A927
:104FA000BDF81D0008F094F80546A0B10421304674
:104FB00008F0B8FCBDF81D3003800023C370837077
:104FC0005D49204616F0A6FAFF287AD121468A20AC
:104FD000FFF76EFE75E040F24A2240F25B31204658
:104FE000BDF81D909DF827B008F020FEFF238DF836
:104FF000123080460EF0BEF990F8F430042B1FFA00
:1050000089FA00F08E806FF0070301269DF81220C8
:10501000FF2A70D003930EF0ADF99DF81250039B58
:105020000746002E65D000220DF1130311465046AD
:1050300008F024F8034600285DD1C5EBC5023A44C8
:105040009DF8131082F8031182F8080182F8090113
:105050004FEAC50AAAEB05033B4493F80821032A4B
:105060004CD81A4482F804B193F80821013283F82D
:105070000821002E4FD00521404608F053FCAAEB32
:10508000050580460026052200212F4430F0DDFA78
:10509000A8F8029088F8016097F8083188F8043081
:1050A00040F25B3240F2912301214FF0FF30009635
:1050B0000DF036F900963346324621461F480CF073
:1050C000FFFC0FB0BDE8F08F0EF054F990F81F31DF
:1050D000032B0CD80EF04EF990F81F318DF81230DA
:1050E0000EF048F990F81F31013380F81F312B463C
:1050F0008BE7002BACD0214618B269E7042301925C
:10510000009340F25B3240F2862301214FF0FF30E2
:105110000DF006F9ADE7404608F050FBD1E7304608
:10512000FAE70DF112015046FFF774FB0028CBD1CE
:10513000034606466AE700BF11520000714D0000A9
:105140002DE9F3410E4602A9FF25044601F8025D50
:105150003046FFF75FFB002848D00EF00BF990F8BF
:105160001F31032B0CD80EF005F990F81F318DF884
:1051700006300EF0FFF890F81F31013380F81F3130
:105180009DF80630FF2B34D00EF0F4F800220746CD
:105190000DF10703114630469DF8065007F06EFFEB
:1051A000804630BBC5EBC5053D449DF8073085F80A
:1051B000033140F2423240F25B31204608F036FDC6
:1051C000022108F0AFFB05460222414630F03DFACD
:1051D0002E800E49204616F020FAFF2803D12146E2
:1051E0008A20FFF765FD02B0BDE8F0818DF806501A
:1051F000C6E7002CF7D04FF4547240F25B312046E2
:1052000008F014FD08F0DAFAEDE700BF5D4E00008B
:1052100073B54FF4567240F25B31054608F006FD57
:105220000646014640F25B3008F023FDB6F9042043
:1052300004465AB941890DF10703023008F036F8E7
:1052400061892846FFF77CFF02B070BD40F26732EB
:1052500040F25B31284608F0E9FC08F0AFFAF3E7CA
:1052600073B5C22240F60901274C054608F0DEFC62
:105270001EF050F894F8D63180F8543094F8E030AD
:10528000032B08BF01234FF0D80240F6090128463E
:1052900008BF84F8E03008F0C9FC94F8E030022B35
:1052A00006460ED194F8D62194F8D434012101FA9F
:1052B00002F21649C3F3800302B0BDE8704013F058
:1052C000CDBD94F8B8330E2143F0010384F8B83310
:1052D00008F0D2FB082205460C4930F092F9B4F8E8
:1052E000CA312B8194F8D631AB72B4F8C831AB8196
:1052F000304608F0E1F90023014600931A460448BD
:105300000CF0DEFB02B070BDE8650020C066002036
:10531000DD64020037B50B4C4FF6FF730546A4F869
:10532000C8310CF0C9F9084B00930130A4F8CA0148
:10533000022304F5E5725021284605F0CFFF03B0A3
:1053400030BD00BFE865002025330200F7B5704C82
:1053500094F8D533C3F342030546052B00F2C98008
:10536000DFE803F04003C76095A294F8A0315B0723
:1053700006D0684818F030FE10B1664818F07CFC82
:10538000052384F8D93394F8D533002666F3430314
:1053900084F8D533012784F8B77384F8DA631DF0F5
:1053A000BDFF4FF49072314630F04FF91DF0B6FF5B
:1053B00007601DF0B3FF0223036194F8D633564A09
:1053C00013F0010F09BFD4F83033C4F8C4231340DD
:1053D000C4F8C4330023514800931A4629460CF000
:1053E0006FFB42E094F9D533002B1BDA94F8D633E7
:1053F0004B4A13F0010F0ABFD4F83033C4F8C4236A
:10540000134094F8D52308BFC4F8C4330321012303
:1054100084F8D93361F34302002384F8DA3384F843
:10542000D523D8E71DF07AFF067D06BB092384F853
:10543000D733082384F8B73394F8CD335B0084F86E
:10544000CD331DF067FF90F85530002B48D01DF08C
:1054500061FF90F8553084F8D631324B0093324AD0
:1054600001233146284605F039FF03B0F0BD94F81A
:10547000D533042262F3430384F8D5331DF04EFF85
:10548000002343751A46009329462848A7E794F855
:10549000D533052262F3430384F8D5330023014654
:1054A00000931A4622489AE7092340F29D1240F6DB
:1054B000090184F8D73308F0B9FBB0F90430A3B17F
:1054C000042384F8B73394F8CD335B0084F8CD33EC
:1054D00094F8D533012262F3430384F8D5330023D3
:1054E00000931A4629460F4879E784F8B73310230A
:1054F000ECE7002440F2B113009440F609020121C8
:105500004FF0FF300CF00CFF00942346E9E700BF9A
:10551000E865002027670020008810026155000020
:105520000070EF05813F0000BE670020493B02008C
:105530003936020008B54FF4F17240F6090108F05F
:1055400075FB05491FF0EAF8102200210348BDE869
:1055500008400CF02FBB00BF095600006155000049
:10556000F7B528B9234803B0BDE8F04008F021B9E9
:10557000214B93F8D92302B3013A83F8D923D3F806
:10558000C46393F8DA1300240127CAB21F2A27D86C
:1055900007FA01F5354201F1010114D00CB183F88D
:1055A000DA2393F8D61191420FD100230146134814
:1055B00000931A460CF084FA10E093F8DA230132D3
:1055C00083F8DA23DBE70124DFE783F8D6210B4BEE
:1055D00000930B4A0123002105F080FE03B0F0BDCB
:1055E0000CB183F8DA230023014600931A460548DC
:1055F000E0E700BF61550000E86500203555000078
:10560000BE670020813F000013B540F2E91240F66A
:105610000901044608F00AFB03798BB10022FF213F
:105620000A480CF097FC0A4B0A48032283F8B72378
:10563000002300931A4621460CF042FA02B010BD36
:1056400002B0BDE8104008F0B9B800BF61550000D5
:10565000E8650020813F000037B50546394890F8DD
:10566000CD33402B04462DD190F8B733012B18D100
:105670001DF054FE0369052B0CBF0F230E2384F885
:10568000D73300231A4694F8D713284612F0D8FFD0
:1056900000232D4800931A4629460CF011FA03B056
:1056A00030BD032B0ED1012380F8B73308222749E0
:1056B00000F54F702FF0A5FF002300931A462946EE
:1056C0002348EAE7FEF772FE402384F8CD33012336
:1056D00084F8B73394F8B833D90705D5002300937D
:1056E0001A4629461B48D8E794F8A0315A071AD021
:1056F00094F8E05005F0FD05012D14D1082213495E
:1057000015482FF07EFF94F82D3384F8E05043F0D5
:10571000020384F82D3394F8D53343F0010384F861
:10572000D53318F067FC1DF0F5FD43780B48DB0717
:105730004CBF0B4B0B4BC4F81E32002300931A4690
:105740001946AAE7E8650020F99F01009375030058
:1057500069620200813F000024690020A58B0100DE
:10576000155300006152000013B504461DF0D2FD30
:10577000437843F0100343701DF0CCFD437813F0E1
:10578000010310D00BF098FF0A4A0B4B0130A2F82E
:10579000CA015021009302F5E5720223204605F06C
:1057A0009DFD02B010BD00931A46214602480CF040
:1057B00087F9F6E7E86500204D53000008B52BF0A7
:1057C00087FDFBF7EBFB01202BF0FCFD2BF0A6FD8A
:1057D000032803D1BDE808402BF0ACBD08BD000094
:1057E00010B5054C94F8283123B9FFF7E7FF0123E2
:1057F00084F8283110BD00BF9879002001482BF0B3
:1058000063BD00BF5C77002007B502AB23F8020D33
:1058100018462BF057FD03B05DF804FB07B502AB4B
:1058200023F8020D18462BF051FD03B05DF804FB80
:10583000064B10B501224FF470549A75444320462C
:105840002BF09DFD0028FAD010BD00BF98790020F4
:10585000034B9A7D012AFCD093F8173103707047EF
:10586000987900202BF01DBD003018BF01202BF0CF
:10587000ABBD003018BF01202BF0A4BD08B5A0F1CE
:105880000B030F2B0ED87F290CD0084B1A1893F856
:10589000363082F85912834202D108462BF010FDAF
:1058A000002008BD4FF0FF3008BD00BF2477002066
:1058B000024B1869003018BF01207047987900200A
:1058C00010B50E4B044693F84500003018BF012078
:1058D0002BF076FD64B9FBF71DFB094B9C68FBF7C9
:1058E00017FB14F0FF0F07D1BDE810402BF025BDCA
:1058F000BDE810402BF029BD10BD00BF247700206B
:105900009879002008B52BF009FDC31E5842584174
:1059100008BD08B52BF002FD023818BF012008BDF4
:10592000F7B5224D06460F46FBF7F4FA0123AB60AC
:10593000FBF7EEFA032E2C460AD0042E19D0012EC6
:105940001DD105F1170003B0BDE8F0402BF03EBDBE
:10595000174BA7F59C4293F836300093203A44F653
:105960002063002105F117002BF001FD68B103B0A1
:10597000F0BD002105F117002BF0EDFCF6E74FF428
:10598000EA7146F67A6008F083F900254FF4ED736A
:10599000009546F67A6201214FF0FF300CF0C0FC12
:1059A0000123E36023602375A560E0E79879002078
:1059B000247700202DE9F041214D07460E46FBF7E4
:1059C000A9FAAC68FBF7A4FA14F0FF04A84605D0C6
:1059D0000123EB602B602B75BDE8F081032E85F869
:1059E00018410DD11521384608F046F80468837C2B
:1059F000002C08BF0426DB075CBF032385F81831A1
:105A0000394646F67A6008F039F90230C0B288F8B3
:105A10001700394646F67A6008F02BF939460546F4
:105A200046F67A6008F02AF92946024605482FF022
:105A3000E8FD21463046BDE8F041FFF771BF00BFE9
:105A400098790020B0790020044B9A7D012A02BF8A
:105A500000229A7583F81701704700BF98790020DB
:105A60002DE9F0410F46FBF795FA036A1A4C1B4DDE
:105A70000133036201264FF000082E60C4F80C8049
:105A8000FBF74CFAC4F81C0194F8182102F0FF014E
:105A90006AB194F81831013BDBB24146042084F826
:105AA0001831FFF73DFF00232B60BDE8F081266031
:105AB0002675A160002FF6D07A78D20644BF032263
:105AC000C4F8302138464FF0000258BFC4F83061A6
:105AD000E2602BF059FCE6E7987900201073002073
